{
  "address": "0x79B9d51E47F9C2541FeC8faA660E99e1d84FFf14",
  "abi": [
    {
      "inputs": [
        {
          "internalType": "uint256",
          "name": "rate",
          "type": "uint256"
        },
        {
          "internalType": "address payable",
          "name": "wallet",
          "type": "address"
        },
        {
          "internalType": "contract IERC20",
          "name": "token",
          "type": "address"
        },
        {
          "internalType": "uint256",
          "name": "tokenDecimals",
          "type": "uint256"
        }
      ],
      "stateMutability": "nonpayable",
      "type": "constructor"
    },
    {
      "anonymous": false,
      "inputs": [
        {
          "indexed": true,
          "internalType": "address",
          "name": "previousOwner",
          "type": "address"
        },
        {
          "indexed": true,
          "internalType": "address",
          "name": "newOwner",
          "type": "address"
        }
      ],
      "name": "OwnershipTransferred",
      "type": "event"
    },
    {
      "anonymous": false,
      "inputs": [
        {
          "indexed": false,
          "internalType": "address",
          "name": "recipient",
          "type": "address"
        },
        {
          "indexed": false,
          "internalType": "uint256",
          "name": "amount",
          "type": "uint256"
        }
      ],
      "name": "Refund",
      "type": "event"
    },
    {
      "anonymous": false,
      "inputs": [
        {
          "indexed": false,
          "internalType": "address",
          "name": "purchaser",
          "type": "address"
        },
        {
          "indexed": false,
          "internalType": "address",
          "name": "beneficiary",
          "type": "address"
        },
        {
          "indexed": false,
          "internalType": "uint256",
          "name": "value",
          "type": "uint256"
        },
        {
          "indexed": false,
          "internalType": "uint256",
          "name": "amount",
          "type": "uint256"
        }
      ],
      "name": "TokensPurchased",
      "type": "event"
    },
    {
      "inputs": [
        {
          "internalType": "address",
          "name": "",
          "type": "address"
        }
      ],
      "name": "_contributions",
      "outputs": [
        {
          "internalType": "uint256",
          "name": "",
          "type": "uint256"
        }
      ],
      "stateMutability": "view",
      "type": "function"
    },
    {
      "inputs": [
        {
          "internalType": "uint256",
          "name": "weiAmount",
          "type": "uint256"
        }
      ],
      "name": "_getTokenAmount",
      "outputs": [
        {
          "internalType": "uint256",
          "name": "",
          "type": "uint256"
        }
      ],
      "stateMutability": "view",
      "type": "function"
    },
    {
      "inputs": [],
      "name": "_rate",
      "outputs": [
        {
          "internalType": "uint256",
          "name": "",
          "type": "uint256"
        }
      ],
      "stateMutability": "view",
      "type": "function"
    },
    {
      "inputs": [],
      "name": "_token",
      "outputs": [
        {
          "internalType": "contract IERC20",
          "name": "",
          "type": "address"
        }
      ],
      "stateMutability": "view",
      "type": "function"
    },
    {
      "inputs": [],
      "name": "_wallet",
      "outputs": [
        {
          "internalType": "address payable",
          "name": "",
          "type": "address"
        }
      ],
      "stateMutability": "view",
      "type": "function"
    },
    {
      "inputs": [],
      "name": "_weiRaised",
      "outputs": [
        {
          "internalType": "uint256",
          "name": "",
          "type": "uint256"
        }
      ],
      "stateMutability": "view",
      "type": "function"
    },
    {
      "inputs": [],
      "name": "availableTokensICO",
      "outputs": [
        {
          "internalType": "uint256",
          "name": "",
          "type": "uint256"
        }
      ],
      "stateMutability": "view",
      "type": "function"
    },
    {
      "inputs": [],
      "name": "buyTokens",
      "outputs": [],
      "stateMutability": "payable",
      "type": "function"
    },
    {
      "inputs": [
        {
          "internalType": "address",
          "name": "addr",
          "type": "address"
        }
      ],
      "name": "checkContribution",
      "outputs": [
        {
          "internalType": "uint256",
          "name": "",
          "type": "uint256"
        }
      ],
      "stateMutability": "view",
      "type": "function"
    },
    {
      "inputs": [],
      "name": "endICO",
      "outputs": [
        {
          "internalType": "uint256",
          "name": "",
          "type": "uint256"
        }
      ],
      "stateMutability": "view",
      "type": "function"
    },
    {
      "inputs": [],
      "name": "hardCap",
      "outputs": [
        {
          "internalType": "uint256",
          "name": "",
          "type": "uint256"
        }
      ],
      "stateMutability": "view",
      "type": "function"
    },
    {
      "inputs": [],
      "name": "maxPurchase",
      "outputs": [
        {
          "internalType": "uint256",
          "name": "",
          "type": "uint256"
        }
      ],
      "stateMutability": "view",
      "type": "function"
    },
    {
      "inputs": [],
      "name": "minPurchase",
      "outputs": [
        {
          "internalType": "uint256",
          "name": "",
          "type": "uint256"
        }
      ],
      "stateMutability": "view",
      "type": "function"
    },
    {
      "inputs": [],
      "name": "owner",
      "outputs": [
        {
          "internalType": "address",
          "name": "",
          "type": "address"
        }
      ],
      "stateMutability": "view",
      "type": "function"
    },
    {
      "inputs": [],
      "name": "refundMe",
      "outputs": [],
      "stateMutability": "nonpayable",
      "type": "function"
    },
    {
      "inputs": [],
      "name": "refundStartDate",
      "outputs": [
        {
          "internalType": "uint256",
          "name": "",
          "type": "uint256"
        }
      ],
      "stateMutability": "view",
      "type": "function"
    },
    {
      "inputs": [
        {
          "internalType": "uint256",
          "name": "amount",
          "type": "uint256"
        }
      ],
      "name": "setAvailableTokens",
      "outputs": [],
      "stateMutability": "nonpayable",
      "type": "function"
    },
    {
      "inputs": [
        {
          "internalType": "uint256",
          "name": "value",
          "type": "uint256"
        }
      ],
      "name": "setHardCap",
      "outputs": [],
      "stateMutability": "nonpayable",
      "type": "function"
    },
    {
      "inputs": [
        {
          "internalType": "uint256",
          "name": "value",
          "type": "uint256"
        }
      ],
      "name": "setMaxPurchase",
      "outputs": [],
      "stateMutability": "nonpayable",
      "type": "function"
    },
    {
      "inputs": [
        {
          "internalType": "uint256",
          "name": "value",
          "type": "uint256"
        }
      ],
      "name": "setMinPurchase",
      "outputs": [],
      "stateMutability": "nonpayable",
      "type": "function"
    },
    {
      "inputs": [
        {
          "internalType": "uint256",
          "name": "newRate",
          "type": "uint256"
        }
      ],
      "name": "setRate",
      "outputs": [],
      "stateMutability": "nonpayable",
      "type": "function"
    },
    {
      "inputs": [
        {
          "internalType": "uint256",
          "name": "value",
          "type": "uint256"
        }
      ],
      "name": "setSoftCap",
      "outputs": [],
      "stateMutability": "nonpayable",
      "type": "function"
    },
    {
      "inputs": [
        {
          "internalType": "address payable",
          "name": "newWallet",
          "type": "address"
        }
      ],
      "name": "setWalletReceiver",
      "outputs": [],
      "stateMutability": "nonpayable",
      "type": "function"
    },
    {
      "inputs": [],
      "name": "softCap",
      "outputs": [
        {
          "internalType": "uint256",
          "name": "",
          "type": "uint256"
        }
      ],
      "stateMutability": "view",
      "type": "function"
    },
    {
      "inputs": [
        {
          "internalType": "uint256",
          "name": "endDate",
          "type": "uint256"
        },
        {
          "internalType": "uint256",
          "name": "_minPurchase",
          "type": "uint256"
        },
        {
          "internalType": "uint256",
          "name": "_maxPurchase",
          "type": "uint256"
        },
        {
          "internalType": "uint256",
          "name": "_softCap",
          "type": "uint256"
        },
        {
          "internalType": "uint256",
          "name": "_hardCap",
          "type": "uint256"
        }
      ],
      "name": "startICO",
      "outputs": [],
      "stateMutability": "nonpayable",
      "type": "function"
    },
    {
      "inputs": [],
      "name": "startRefund",
      "outputs": [
        {
          "internalType": "bool",
          "name": "",
          "type": "bool"
        }
      ],
      "stateMutability": "view",
      "type": "function"
    },
    {
      "inputs": [],
      "name": "stopICO",
      "outputs": [],
      "stateMutability": "nonpayable",
      "type": "function"
    },
    {
      "inputs": [
        {
          "internalType": "contract IERC20",
          "name": "tokenAddress",
          "type": "address"
        }
      ],
      "name": "takeTokens",
      "outputs": [],
      "stateMutability": "nonpayable",
      "type": "function"
    },
    {
      "inputs": [
        {
          "internalType": "address",
          "name": "newOwner",
          "type": "address"
        }
      ],
      "name": "transferOwnership",
      "outputs": [],
      "stateMutability": "nonpayable",
      "type": "function"
    },
    {
      "inputs": [],
      "name": "weiRaised",
      "outputs": [
        {
          "internalType": "uint256",
          "name": "",
          "type": "uint256"
        }
      ],
      "stateMutability": "view",
      "type": "function"
    },
    {
      "inputs": [],
      "name": "withdraw",
      "outputs": [],
      "stateMutability": "nonpayable",
      "type": "function"
    },
    {
      "stateMutability": "payable",
      "type": "receive"
    }
  ],
  "transactionHash": "0xf1daae57225482660326bf43fcfb69b53eb0871afa3d3dbfee3952cf52341c46",
  "args": [
    "5000000000000000000000",
    "0x15C0fE80Ac0109CcF9bE71E1FE39256987Cb9E18",
    "0x38cB7596107FF97326545BA96c69aE563E827C79",
    18
  ],
  "numDeployments": 2,
  "solcInputHash": "84956440dcdaa7c89e79c46dbc528cb4",
  "bytecode": "0x60806040526000600e60006101000a81548160ff0219169083151502179055503480156200002c57600080fd5b50604051620039713803806200397183398181016040528101906200005291906200031e565b600160008190555060006200006c620002d160201b60201c565b905080600160006101000a81548173ffffffffffffffffffffffffffffffffffffffff021916908373ffffffffffffffffffffffffffffffffffffffff1602179055508073ffffffffffffffffffffffffffffffffffffffff16600073ffffffffffffffffffffffffffffffffffffffff167f8be0079c531659141344cd1fd0a4f28419497f9722a3daafe3b4186f6b6457e060405160405180910390a3506000841162000151576040517f08c379a0000000000000000000000000000000000000000000000000000000008152600401620001489062000449565b60405180910390fd5b600073ffffffffffffffffffffffffffffffffffffffff168373ffffffffffffffffffffffffffffffffffffffff161415620001c4576040517f08c379a0000000000000000000000000000000000000000000000000000000008152600401620001bb9062000405565b60405180910390fd5b600073ffffffffffffffffffffffffffffffffffffffff168273ffffffffffffffffffffffffffffffffffffffff16141562000237576040517f08c379a00000000000000000000000000000000000000000000000000000000081526004016200022e9062000427565b60405180910390fd5b8360068190555082600560006101000a81548173ffffffffffffffffffffffffffffffffffffffff021916908373ffffffffffffffffffffffffffffffffffffffff16021790555081600360006101000a81548173ffffffffffffffffffffffffffffffffffffffff021916908373ffffffffffffffffffffffffffffffffffffffff1602179055508060048190555050505050620005fc565b600033905090565b600081519050620002ea81620005ae565b92915050565b6000815190506200030181620005c8565b92915050565b6000815190506200031881620005e2565b92915050565b600080600080608085870312156200033b576200033a620004e2565b5b60006200034b8782880162000307565b94505060206200035e87828801620002d9565b93505060406200037187828801620002f0565b9250506060620003848782880162000307565b91505092959194509250565b60006200039f6024836200046b565b9150620003ac82620004e7565b604082019050919050565b6000620003c66023836200046b565b9150620003d38262000536565b604082019050919050565b6000620003ed6013836200046b565b9150620003fa8262000585565b602082019050919050565b60006020820190508181036000830152620004208162000390565b9050919050565b600060208201905081810360008301526200044281620003b7565b9050919050565b600060208201905081810360008301526200046481620003de565b9050919050565b600082825260208201905092915050565b60006200048982620004b8565b9050919050565b60006200049d82620004b8565b9050919050565b6000620004b1826200047c565b9050919050565b600073ffffffffffffffffffffffffffffffffffffffff82169050919050565b6000819050919050565b600080fd5b7f5072652d53616c653a2077616c6c657420697320746865207a65726f2061646460008201527f7265737300000000000000000000000000000000000000000000000000000000602082015250565b7f5072652d53616c653a20746f6b656e20697320746865207a65726f206164647260008201527f6573730000000000000000000000000000000000000000000000000000000000602082015250565b7f5072652d53616c653a2072617465206973203000000000000000000000000000600082015250565b620005b98162000490565b8114620005c557600080fd5b50565b620005d381620004a4565b8114620005df57600080fd5b50565b620005ed81620004d8565b8114620005f957600080fd5b50565b613365806200060c6000396000f3fe6080604052600436106101dc5760003560e01c8063977b055b11610102578063d5cf5c7211610095578063ecd0c0c311610064578063ecd0c0c3146106a2578063f2fde38b146106cd578063f6d893ec146106f6578063fb86a4041461071f5761024b565b8063d5cf5c72146105fc578063e3cef7a114610625578063e8307d001461064e578063e9fdfd9f146106775761024b565b8063c8e569a8116100d1578063c8e569a814610589578063d0febe4c146105a0578063d18d944b146105aa578063d572d5f7146105d35761024b565b8063977b055b146104cb578063a41a028b146104f6578063ab0ced0e14610521578063adf4a1441461055e5761024b565b80635a9e426b1161017a57806383bebced1161014957806383bebced1461041f5780638da5cb5b1461044a578063906a26e01461047557806394a5aa8d146104a05761024b565b80635a9e426b14610377578063610757e41461038e57806371189742146103b95780637a99bb0a146103e25761024b565b806334fcf437116101b657806334fcf437146102e15780633ccfd60b1461030a5780634042b66f146103215780634f2484091461034c5761024b565b80631e6a610d14610250578063298b6a9f1461028d57806333b5b62e146102b65761024b565b3661024b5760006008541180156101f4575060085442105b156102065761020161074a565b610249565b60006008819055506040517f08c379a000000000000000000000000000000000000000000000000000000000815260040161024090612996565b60405180910390fd5b005b600080fd5b34801561025c57600080fd5b5061027760048036038101906102729190612196565b61094d565b6040516102849190612a56565b60405180910390f35b34801561029957600080fd5b506102b460048036038101906102af91906122a4565b610965565b005b3480156102c257600080fd5b506102cb610c94565b6040516102d89190612a56565b60405180910390f35b3480156102ed57600080fd5b506103086004803603810190610303919061224a565b610c9a565b005b34801561031657600080fd5b5061031f610d7f565b005b34801561032d57600080fd5b50610336610f42565b6040516103439190612a56565b60405180910390f35b34801561035857600080fd5b50610361610f4c565b60405161036e9190612a56565b60405180910390f35b34801561038357600080fd5b5061038c610f52565b005b34801561039a57600080fd5b506103a3611110565b6040516103b091906126ac565b60405180910390f35b3480156103c557600080fd5b506103e060048036038101906103db919061224a565b611136565b005b3480156103ee57600080fd5b506104096004803603810190610404919061224a565b6111d7565b6040516104169190612a56565b60405180910390f35b34801561042b57600080fd5b50610434611215565b6040516104419190612a56565b60405180910390f35b34801561045657600080fd5b5061045f61121b565b60405161046c9190612691565b60405180910390f35b34801561048157600080fd5b5061048a611245565b6040516104979190612a56565b60405180910390f35b3480156104ac57600080fd5b506104b561124b565b6040516104c29190612a56565b60405180910390f35b3480156104d757600080fd5b506104e0611251565b6040516104ed9190612a56565b60405180910390f35b34801561050257600080fd5b5061050b611257565b6040516105189190612a56565b60405180910390f35b34801561052d57600080fd5b5061054860048036038101906105439190612196565b61125d565b6040516105559190612a56565b60405180910390f35b34801561056a57600080fd5b506105736112a6565b604051610580919061275e565b60405180910390f35b34801561059557600080fd5b5061059e6112b9565b005b6105a861074a565b005b3480156105b657600080fd5b506105d160048036038101906105cc919061224a565b6113f5565b005b3480156105df57600080fd5b506105fa60048036038101906105f591906121c3565b611496565b005b34801561060857600080fd5b50610623600480360381019061061e919061224a565b611571565b005b34801561063157600080fd5b5061064c6004803603810190610647919061221d565b611612565b005b34801561065a57600080fd5b506106756004803603810190610670919061224a565b611877565b005b34801561068357600080fd5b5061068c611918565b6040516106999190612a56565b60405180910390f35b3480156106ae57600080fd5b506106b761191e565b6040516106c49190612779565b60405180910390f35b3480156106d957600080fd5b506106f460048036038101906106ef9190612196565b611944565b005b34801561070257600080fd5b5061071d6004803603810190610718919061224a565b611b0b565b005b34801561072b57600080fd5b50610734611bf0565b6040516107419190612a56565b60405180910390f35b60026000541415610790576040517f08c379a0000000000000000000000000000000000000000000000000000000008152600401610787906129f6565b60405180910390fd5b600260008190555060006008541180156107ab575060085442105b80156107b957506000600d54115b6107f8576040517f08c379a00000000000000000000000000000000000000000000000000000000081526004016107ef906128d6565b60405180910390fd5b600034905061080e610808611bf6565b82611bfe565b6000610819826111d7565b905061083082600754611de390919063ffffffff16565b60078190555080600d546108449190612cdf565b600d819055506108a3826002600061085a611bf6565b73ffffffffffffffffffffffffffffffffffffffff1673ffffffffffffffffffffffffffffffffffffffff16815260200190815260200160002054611de390919063ffffffff16565b600260006108af611bf6565b73ffffffffffffffffffffffffffffffffffffffff1673ffffffffffffffffffffffffffffffffffffffff168152602001908152602001600020819055507f6faf93231a456e552dbc9961f58d9713ee4f2e69d15f1975b050ef0911053a7b610916611bf6565b33848460405161092994939291906126c7565b60405180910390a1610939611e41565b610941611f85565b50506001600081905550565b60026020528060005260406000206000915090505481565b61096d611bf6565b73ffffffffffffffffffffffffffffffffffffffff16600160009054906101000a900473ffffffffffffffffffffffffffffffffffffffff1673ffffffffffffffffffffffffffffffffffffffff16146109fc576040517f08c379a00000000000000000000000000000000000000000000000000000000081526004016109f390612956565b60405180910390fd5b4260085410610a40576040517f08c379a0000000000000000000000000000000000000000000000000000000008152600401610a37906129d6565b60405180910390fd5b6000600e60006101000a81548160ff0219169083151502179055506000600f81905550600360009054906101000a900473ffffffffffffffffffffffffffffffffffffffff1673ffffffffffffffffffffffffffffffffffffffff166370a08231306040518263ffffffff1660e01b8152600401610abe9190612691565b60206040518083038186803b158015610ad657600080fd5b505afa158015610aea573d6000803e3d6000fd5b505050506040513d601f19601f82011682018060405250810190610b0e9190612277565b600d81905550428511610b56576040517f08c379a0000000000000000000000000000000000000000000000000000000008152600401610b4d90612836565b60405180910390fd5b808210610b98576040517f08c379a0000000000000000000000000000000000000000000000000000000008152600401610b8f906127b6565b60405180910390fd5b828410610bda576040517f08c379a0000000000000000000000000000000000000000000000000000000008152600401610bd1906128b6565b60405180910390fd5b6000600d5411610c1f576040517f08c379a0000000000000000000000000000000000000000000000000000000008152600401610c16906127f6565b60405180910390fd5b60008411610c62576040517f08c379a0000000000000000000000000000000000000000000000000000000008152600401610c59906128f6565b60405180910390fd5b846008819055508360098190555082600a8190555081600c8190555080600b8190555060006007819055505050505050565b60095481565b610ca2611bf6565b73ffffffffffffffffffffffffffffffffffffffff16600160009054906101000a900473ffffffffffffffffffffffffffffffffffffffff1673ffffffffffffffffffffffffffffffffffffffff1614610d31576040517f08c379a0000000000000000000000000000000000000000000000000000000008152600401610d2890612956565b60405180910390fd5b4260085410610d75576040517f08c379a0000000000000000000000000000000000000000000000000000000008152600401610d6c906129d6565b60405180910390fd5b8060068190555050565b610d87611bf6565b73ffffffffffffffffffffffffffffffffffffffff16600160009054906101000a900473ffffffffffffffffffffffffffffffffffffffff1673ffffffffffffffffffffffffffffffffffffffff1614610e16576040517f08c379a0000000000000000000000000000000000000000000000000000000008152600401610e0d90612956565b60405180910390fd5b4260085410610e5a576040517f08c379a0000000000000000000000000000000000000000000000000000000008152600401610e51906129d6565b60405180910390fd5b60001515600e60009054906101000a900460ff1615151480610e8b5750426203f480600f54610e899190612a8d565b105b610e9457600080fd5b60004711610ed7576040517f08c379a0000000000000000000000000000000000000000000000000000000008152600401610ece90612a36565b60405180910390fd5b600560009054906101000a900473ffffffffffffffffffffffffffffffffffffffff1673ffffffffffffffffffffffffffffffffffffffff166108fc479081150290604051600060405180830381858888f19350505050158015610f3f573d6000803e3d6000fd5b50565b6000600754905090565b60085481565b4260085410610f96576040517f08c379a0000000000000000000000000000000000000000000000000000000008152600401610f8d906129d6565b60405180910390fd5b60011515600e60009054906101000a900460ff16151514610fec576040517f08c379a0000000000000000000000000000000000000000000000000000000008152600401610fe390612876565b60405180910390fd5b6000600260003373ffffffffffffffffffffffffffffffffffffffff1673ffffffffffffffffffffffffffffffffffffffff16815260200190815260200160002054905080471061110d576000600260003373ffffffffffffffffffffffffffffffffffffffff1673ffffffffffffffffffffffffffffffffffffffff16815260200190815260200160002081905550600081111561110c5760003390508073ffffffffffffffffffffffffffffffffffffffff166108fc839081150290604051600060405180830381858888f193505050501580156110d0573d6000803e3d6000fd5b507fbb28353e4598c3b9199101a66e0989549b659a59a54d2c27fbb183f1932c8e6d3383604051611102929190612735565b60405180910390a1505b5b50565b600560009054906101000a900473ffffffffffffffffffffffffffffffffffffffff1681565b61113e611bf6565b73ffffffffffffffffffffffffffffffffffffffff16600160009054906101000a900473ffffffffffffffffffffffffffffffffffffffff1673ffffffffffffffffffffffffffffffffffffffff16146111cd576040517f08c379a00000000000000000000000000000000000000000000000000000000081526004016111c490612956565b60405180910390fd5b80600a8190555050565b600061120e600454600a6111eb9190612b67565b61120060065485611ff090919063ffffffff16565b61206b90919063ffffffff16565b9050919050565b60065481565b6000600160009054906101000a900473ffffffffffffffffffffffffffffffffffffffff16905090565b600c5481565b60075481565b600a5481565b600d5481565b6000600260008373ffffffffffffffffffffffffffffffffffffffff1673ffffffffffffffffffffffffffffffffffffffff168152602001908152602001600020549050919050565b600e60009054906101000a900460ff1681565b6112c1611bf6565b73ffffffffffffffffffffffffffffffffffffffff16600160009054906101000a900473ffffffffffffffffffffffffffffffffffffffff1673ffffffffffffffffffffffffffffffffffffffff1614611350576040517f08c379a000000000000000000000000000000000000000000000000000000000815260040161134790612956565b60405180910390fd5b6000600854118015611363575060085442105b801561137157506000600d54115b6113b0576040517f08c379a00000000000000000000000000000000000000000000000000000000081526004016113a7906128d6565b60405180910390fd5b6000600881905550600c54600754106113d0576113cb611f85565b6113f3565b6001600e60006101000a81548160ff02191690831515021790555042600f819055505b565b6113fd611bf6565b73ffffffffffffffffffffffffffffffffffffffff16600160009054906101000a900473ffffffffffffffffffffffffffffffffffffffff1673ffffffffffffffffffffffffffffffffffffffff161461148c576040517f08c379a000000000000000000000000000000000000000000000000000000000815260040161148390612956565b60405180910390fd5b80600b8190555050565b61149e611bf6565b73ffffffffffffffffffffffffffffffffffffffff16600160009054906101000a900473ffffffffffffffffffffffffffffffffffffffff1673ffffffffffffffffffffffffffffffffffffffff161461152d576040517f08c379a000000000000000000000000000000000000000000000000000000000815260040161152490612956565b60405180910390fd5b80600560006101000a81548173ffffffffffffffffffffffffffffffffffffffff021916908373ffffffffffffffffffffffffffffffffffffffff16021790555050565b611579611bf6565b73ffffffffffffffffffffffffffffffffffffffff16600160009054906101000a900473ffffffffffffffffffffffffffffffffffffffff1673ffffffffffffffffffffffffffffffffffffffff1614611608576040517f08c379a00000000000000000000000000000000000000000000000000000000081526004016115ff90612956565b60405180910390fd5b80600c8190555050565b61161a611bf6565b73ffffffffffffffffffffffffffffffffffffffff16600160009054906101000a900473ffffffffffffffffffffffffffffffffffffffff1673ffffffffffffffffffffffffffffffffffffffff16146116a9576040517f08c379a00000000000000000000000000000000000000000000000000000000081526004016116a090612956565b60405180910390fd5b42600854106116ed576040517f08c379a00000000000000000000000000000000000000000000000000000000081526004016116e4906129d6565b60405180910390fd5b600081905060008173ffffffffffffffffffffffffffffffffffffffff166370a08231306040518263ffffffff1660e01b815260040161172d9190612691565b60206040518083038186803b15801561174557600080fd5b505afa158015611759573d6000803e3d6000fd5b505050506040513d601f19601f8201168201806040525081019061177d9190612277565b9050600081116117c2576040517f08c379a00000000000000000000000000000000000000000000000000000000081526004016117b990612976565b60405180910390fd5b8173ffffffffffffffffffffffffffffffffffffffff1663a9059cbb600560009054906101000a900473ffffffffffffffffffffffffffffffffffffffff16836040518363ffffffff1660e01b815260040161181f92919061270c565b602060405180830381600087803b15801561183957600080fd5b505af115801561184d573d6000803e3d6000fd5b505050506040513d601f19601f8201168201806040525081019061187191906121f0565b50505050565b61187f611bf6565b73ffffffffffffffffffffffffffffffffffffffff16600160009054906101000a900473ffffffffffffffffffffffffffffffffffffffff1673ffffffffffffffffffffffffffffffffffffffff161461190e576040517f08c379a000000000000000000000000000000000000000000000000000000000815260040161190590612956565b60405180910390fd5b8060098190555050565b600f5481565b600360009054906101000a900473ffffffffffffffffffffffffffffffffffffffff1681565b61194c611bf6565b73ffffffffffffffffffffffffffffffffffffffff16600160009054906101000a900473ffffffffffffffffffffffffffffffffffffffff1673ffffffffffffffffffffffffffffffffffffffff16146119db576040517f08c379a00000000000000000000000000000000000000000000000000000000081526004016119d290612956565b60405180910390fd5b600073ffffffffffffffffffffffffffffffffffffffff168173ffffffffffffffffffffffffffffffffffffffff161415611a4b576040517f08c379a0000000000000000000000000000000000000000000000000000000008152600401611a4290612816565b60405180910390fd5b8073ffffffffffffffffffffffffffffffffffffffff16600160009054906101000a900473ffffffffffffffffffffffffffffffffffffffff1673ffffffffffffffffffffffffffffffffffffffff167f8be0079c531659141344cd1fd0a4f28419497f9722a3daafe3b4186f6b6457e060405160405180910390a380600160006101000a81548173ffffffffffffffffffffffffffffffffffffffff021916908373ffffffffffffffffffffffffffffffffffffffff16021790555050565b611b13611bf6565b73ffffffffffffffffffffffffffffffffffffffff16600160009054906101000a900473ffffffffffffffffffffffffffffffffffffffff1673ffffffffffffffffffffffffffffffffffffffff1614611ba2576040517f08c379a0000000000000000000000000000000000000000000000000000000008152600401611b9990612956565b60405180910390fd5b4260085410611be6576040517f08c379a0000000000000000000000000000000000000000000000000000000008152600401611bdd906129d6565b60405180910390fd5b80600d8190555050565b600b5481565b600033905090565b600073ffffffffffffffffffffffffffffffffffffffff168273ffffffffffffffffffffffffffffffffffffffff161415611c6e576040517f08c379a0000000000000000000000000000000000000000000000000000000008152600401611c65906129b6565b60405180910390fd5b6000811415611cb2576040517f08c379a0000000000000000000000000000000000000000000000000000000008152600401611ca990612a16565b60405180910390fd5b600954811015611cf7576040517f08c379a0000000000000000000000000000000000000000000000000000000008152600401611cee90612916565b60405180910390fd5b600a54611d4c82600260008673ffffffffffffffffffffffffffffffffffffffff1673ffffffffffffffffffffffffffffffffffffffff16815260200190815260200160002054611de390919063ffffffff16565b1115611d8d576040517f08c379a0000000000000000000000000000000000000000000000000000000008152600401611d84906127d6565b60405180910390fd5b600b5481600754611d9e9190612a8d565b1115611ddf576040517f08c379a0000000000000000000000000000000000000000000000000000000008152600401611dd690612896565b60405180910390fd5b5050565b6000808284611df29190612a8d565b905083811015611e37576040517f08c379a0000000000000000000000000000000000000000000000000000000008152600401611e2e90612856565b60405180910390fd5b8091505092915050565b6000611e8b600260003373ffffffffffffffffffffffffffffffffffffffff1673ffffffffffffffffffffffffffffffffffffffff168152602001908152602001600020546111d7565b90506000600260003373ffffffffffffffffffffffffffffffffffffffff1673ffffffffffffffffffffffffffffffffffffffff16815260200190815260200160002081905550600360009054906101000a900473ffffffffffffffffffffffffffffffffffffffff1673ffffffffffffffffffffffffffffffffffffffff1663a9059cbb33836040518363ffffffff1660e01b8152600401611f2f929190612735565b602060405180830381600087803b158015611f4957600080fd5b505af1158015611f5d573d6000803e3d6000fd5b505050506040513d601f19601f82011682018060405250810190611f8191906121f0565b5050565b600560009054906101000a900473ffffffffffffffffffffffffffffffffffffffff1673ffffffffffffffffffffffffffffffffffffffff166108fc479081150290604051600060405180830381858888f19350505050158015611fed573d6000803e3d6000fd5b50565b6000808314156120035760009050612065565b600082846120119190612c85565b90508284826120209190612ae3565b14612060576040517f08c379a000000000000000000000000000000000000000000000000000000000815260040161205790612936565b60405180910390fd5b809150505b92915050565b60006120ad83836040518060400160405280601a81526020017f536166654d6174683a206469766973696f6e206279207a65726f0000000000008152506120b5565b905092915050565b600080831182906120fc576040517f08c379a00000000000000000000000000000000000000000000000000000000081526004016120f39190612794565b60405180910390fd5b506000838561210b9190612ae3565b9050809150509392505050565b600081359050612127816132bc565b92915050565b60008135905061213c816132d3565b92915050565b600081519050612151816132ea565b92915050565b60008135905061216681613301565b92915050565b60008135905061217b81613318565b92915050565b60008151905061219081613318565b92915050565b6000602082840312156121ac576121ab612e58565b5b60006121ba84828501612118565b91505092915050565b6000602082840312156121d9576121d8612e58565b5b60006121e78482850161212d565b91505092915050565b60006020828403121561220657612205612e58565b5b600061221484828501612142565b91505092915050565b60006020828403121561223357612232612e58565b5b600061224184828501612157565b91505092915050565b6000602082840312156122605761225f612e58565b5b600061226e8482850161216c565b91505092915050565b60006020828403121561228d5761228c612e58565b5b600061229b84828501612181565b91505092915050565b600080600080600060a086880312156122c0576122bf612e58565b5b60006122ce8882890161216c565b95505060206122df8882890161216c565b94505060406122f08882890161216c565b93505060606123018882890161216c565b92505060806123128882890161216c565b9150509295509295909350565b61232881612d7f565b82525050565b61233781612d25565b82525050565b61234681612d13565b82525050565b61235581612d37565b82525050565b61236481612d91565b82525050565b600061237582612a71565b61237f8185612a7c565b935061238f818560208601612dc7565b61239881612e5d565b840191505092915050565b60006123b0602283612a7c565b91506123bb82612e7b565b604082019050919050565b60006123d3602083612a7c565b91506123de82612eca565b602082019050919050565b60006123f6601b83612a7c565b915061240182612ef3565b602082019050919050565b6000612419602683612a7c565b915061242482612f1c565b604082019050919050565b600061243c601683612a7c565b915061244782612f6b565b602082019050919050565b600061245f601b83612a7c565b915061246a82612f94565b602082019050919050565b6000612482601383612a7c565b915061248d82612fbd565b602082019050919050565b60006124a5601083612a7c565b91506124b082612fe6565b602082019050919050565b60006124c8602a83612a7c565b91506124d38261300f565b604082019050919050565b60006124eb601283612a7c565b91506124f68261305e565b602082019050919050565b600061250e601783612a7c565b915061251982613087565b602082019050919050565b6000612531602283612a7c565b915061253c826130b0565b604082019050919050565b6000612554602183612a7c565b915061255f826130ff565b604082019050919050565b6000612577602083612a7c565b91506125828261314e565b602082019050919050565b600061259a601383612a7c565b91506125a582613177565b602082019050919050565b60006125bd601283612a7c565b91506125c8826131a0565b602082019050919050565b60006125e0602a83612a7c565b91506125eb826131c9565b604082019050919050565b6000612603601883612a7c565b915061260e82613218565b602082019050919050565b6000612626601f83612a7c565b915061263182613241565b602082019050919050565b6000612649601983612a7c565b91506126548261326a565b602082019050919050565b600061266c601583612a7c565b915061267782613293565b602082019050919050565b61268b81612d75565b82525050565b60006020820190506126a6600083018461233d565b92915050565b60006020820190506126c1600083018461232e565b92915050565b60006080820190506126dc600083018761231f565b6126e9602083018661233d565b6126f66040830185612682565b6127036060830184612682565b95945050505050565b6000604082019050612721600083018561231f565b61272e6020830184612682565b9392505050565b600060408201905061274a600083018561233d565b6127576020830184612682565b9392505050565b6000602082019050612773600083018461234c565b92915050565b600060208201905061278e600083018461235b565b92915050565b600060208201905081810360008301526127ae818461236a565b905092915050565b600060208201905081810360008301526127cf816123a3565b9050919050565b600060208201905081810360008301526127ef816123c6565b9050919050565b6000602082019050818103600083015261280f816123e9565b9050919050565b6000602082019050818103600083015261282f8161240c565b9050919050565b6000602082019050818103600083015261284f8161242f565b9050919050565b6000602082019050818103600083015261286f81612452565b9050919050565b6000602082019050818103600083015261288f81612475565b9050919050565b600060208201905081810360008301526128af81612498565b9050919050565b600060208201905081810360008301526128cf816124bb565b9050919050565b600060208201905081810360008301526128ef816124de565b9050919050565b6000602082019050818103600083015261290f81612501565b9050919050565b6000602082019050818103600083015261292f81612524565b9050919050565b6000602082019050818103600083015261294f81612547565b9050919050565b6000602082019050818103600083015261296f8161256a565b9050919050565b6000602082019050818103600083015261298f8161258d565b9050919050565b600060208201905081810360008301526129af816125b0565b9050919050565b600060208201905081810360008301526129cf816125d3565b9050919050565b600060208201905081810360008301526129ef816125f6565b9050919050565b60006020820190508181036000830152612a0f81612619565b9050919050565b60006020820190508181036000830152612a2f8161263c565b9050919050565b60006020820190508181036000830152612a4f8161265f565b9050919050565b6000602082019050612a6b6000830184612682565b92915050565b600081519050919050565b600082825260208201905092915050565b6000612a9882612d75565b9150612aa383612d75565b9250827fffffffffffffffffffffffffffffffffffffffffffffffffffffffffffffffff03821115612ad857612ad7612dfa565b5b828201905092915050565b6000612aee82612d75565b9150612af983612d75565b925082612b0957612b08612e29565b5b828204905092915050565b6000808291508390505b6001851115612b5e57808604811115612b3a57612b39612dfa565b5b6001851615612b495780820291505b8081029050612b5785612e6e565b9450612b1e565b94509492505050565b6000612b7282612d75565b9150612b7d83612d75565b9250612baa7fffffffffffffffffffffffffffffffffffffffffffffffffffffffffffffffff8484612bb2565b905092915050565b600082612bc25760019050612c7e565b81612bd05760009050612c7e565b8160018114612be65760028114612bf057612c1f565b6001915050612c7e565b60ff841115612c0257612c01612dfa565b5b8360020a915084821115612c1957612c18612dfa565b5b50612c7e565b5060208310610133831016604e8410600b8410161715612c545782820a905083811115612c4f57612c4e612dfa565b5b612c7e565b612c618484846001612b14565b92509050818404811115612c7857612c77612dfa565b5b81810290505b9392505050565b6000612c9082612d75565b9150612c9b83612d75565b9250817fffffffffffffffffffffffffffffffffffffffffffffffffffffffffffffffff0483118215151615612cd457612cd3612dfa565b5b828202905092915050565b6000612cea82612d75565b9150612cf583612d75565b925082821015612d0857612d07612dfa565b5b828203905092915050565b6000612d1e82612d55565b9050919050565b6000612d3082612d55565b9050919050565b60008115159050919050565b6000612d4e82612d13565b9050919050565b600073ffffffffffffffffffffffffffffffffffffffff82169050919050565b6000819050919050565b6000612d8a82612da3565b9050919050565b6000612d9c82612da3565b9050919050565b6000612dae82612db5565b9050919050565b6000612dc082612d55565b9050919050565b60005b83811015612de5578082015181840152602081019050612dca565b83811115612df4576000848401525b50505050565b7f4e487b7100000000000000000000000000000000000000000000000000000000600052601160045260246000fd5b7f4e487b7100000000000000000000000000000000000000000000000000000000600052601260045260246000fd5b600080fd5b6000601f19601f8301169050919050565b60008160011c9050919050565b7f536f6674636170206d757374206265206c6f776572207468616e20486172646360008201527f6170000000000000000000000000000000000000000000000000000000000000602082015250565b7f63616e277420627579206d6f7265207468616e3a206d61785075726368617365600082015250565b7f617661696c61626c65546f6b656e73206d757374206265203e20300000000000600082015250565b7f4f776e61626c653a206e6577206f776e657220697320746865207a65726f206160008201527f6464726573730000000000000000000000000000000000000000000000000000602082015250565b7f6475726174696f6e2073686f756c64206265203e203000000000000000000000600082015250565b7f536166654d6174683a206164646974696f6e206f766572666c6f770000000000600082015250565b7f6e6f20726566756e6420617661696c61626c6500000000000000000000000000600082015250565b7f4861726420436170207265616368656400000000000000000000000000000000600082015250565b7f6d696e5075726368617365206d757374206265206c6f776572207468616e206d60008201527f6178507572636861736500000000000000000000000000000000000000000000602082015250565b7f49434f206d757374206265206163746976650000000000000000000000000000600082015250565b7f5f6d696e50757263686173652073686f756c64203e2030000000000000000000600082015250565b7f6861766520746f2073656e64206174206c656173743a206d696e50757263686160008201527f7365000000000000000000000000000000000000000000000000000000000000602082015250565b7f536166654d6174683a206d756c7469706c69636174696f6e206f766572666c6f60008201527f7700000000000000000000000000000000000000000000000000000000000000602082015250565b7f4f776e61626c653a2063616c6c6572206973206e6f7420746865206f776e6572600082015250565b7f4245502d32302062616c616e6365206973203000000000000000000000000000600082015250565b7f5072652d53616c6520697320636c6f7365640000000000000000000000000000600082015250565b7f43726f776473616c653a2062656e656669636961727920697320746865207a6560008201527f726f206164647265737300000000000000000000000000000000000000000000602082015250565b7f49434f2073686f756c64206e6f74206265206163746976650000000000000000600082015250565b7f5265656e7472616e637947756172643a207265656e7472616e742063616c6c00600082015250565b7f43726f776473616c653a20776569416d6f756e74206973203000000000000000600082015250565b7f436f6e747261637420686173206e6f206d6f6e65790000000000000000000000600082015250565b6132c581612d13565b81146132d057600080fd5b50565b6132dc81612d25565b81146132e757600080fd5b50565b6132f381612d37565b81146132fe57600080fd5b50565b61330a81612d43565b811461331557600080fd5b50565b61332181612d75565b811461332c57600080fd5b5056fea2646970667358221220ff39064fd8af64d965afa2cc01face0a7ea8388749da06b06cbf655b779ff9ff64736f6c63430008070033",
  "devdoc": {
    "kind": "dev",
    "methods": {},
    "version": 1
  },
  "userdoc": {
    "kind": "user",
    "methods": {},
    "version": 1
  },
  "storageLayout": {
    "storage": [
      {
        "astId": 864,
        "contract": "contracts/Sale.sol:Sale",
        "label": "_status",
        "offset": 0,
        "slot": "0",
        "type": "t_uint256"
      },
      {
        "astId": 781,
        "contract": "contracts/Sale.sol:Sale",
        "label": "_owner",
        "offset": 0,
        "slot": "1",
        "type": "t_address"
      },
      {
        "astId": 16,
        "contract": "contracts/Sale.sol:Sale",
        "label": "_contributions",
        "offset": 0,
        "slot": "2",
        "type": "t_mapping(t_address,t_uint256)"
      },
      {
        "astId": 19,
        "contract": "contracts/Sale.sol:Sale",
        "label": "_token",
        "offset": 0,
        "slot": "3",
        "type": "t_contract(IERC20)1144"
      },
      {
        "astId": 21,
        "contract": "contracts/Sale.sol:Sale",
        "label": "_tokenDecimals",
        "offset": 0,
        "slot": "4",
        "type": "t_uint256"
      },
      {
        "astId": 23,
        "contract": "contracts/Sale.sol:Sale",
        "label": "_wallet",
        "offset": 0,
        "slot": "5",
        "type": "t_address_payable"
      },
      {
        "astId": 25,
        "contract": "contracts/Sale.sol:Sale",
        "label": "_rate",
        "offset": 0,
        "slot": "6",
        "type": "t_uint256"
      },
      {
        "astId": 27,
        "contract": "contracts/Sale.sol:Sale",
        "label": "_weiRaised",
        "offset": 0,
        "slot": "7",
        "type": "t_uint256"
      },
      {
        "astId": 29,
        "contract": "contracts/Sale.sol:Sale",
        "label": "endICO",
        "offset": 0,
        "slot": "8",
        "type": "t_uint256"
      },
      {
        "astId": 31,
        "contract": "contracts/Sale.sol:Sale",
        "label": "minPurchase",
        "offset": 0,
        "slot": "9",
        "type": "t_uint256"
      },
      {
        "astId": 33,
        "contract": "contracts/Sale.sol:Sale",
        "label": "maxPurchase",
        "offset": 0,
        "slot": "10",
        "type": "t_uint256"
      },
      {
        "astId": 35,
        "contract": "contracts/Sale.sol:Sale",
        "label": "hardCap",
        "offset": 0,
        "slot": "11",
        "type": "t_uint256"
      },
      {
        "astId": 37,
        "contract": "contracts/Sale.sol:Sale",
        "label": "softCap",
        "offset": 0,
        "slot": "12",
        "type": "t_uint256"
      },
      {
        "astId": 39,
        "contract": "contracts/Sale.sol:Sale",
        "label": "availableTokensICO",
        "offset": 0,
        "slot": "13",
        "type": "t_uint256"
      },
      {
        "astId": 42,
        "contract": "contracts/Sale.sol:Sale",
        "label": "startRefund",
        "offset": 0,
        "slot": "14",
        "type": "t_bool"
      },
      {
        "astId": 44,
        "contract": "contracts/Sale.sol:Sale",
        "label": "refundStartDate",
        "offset": 0,
        "slot": "15",
        "type": "t_uint256"
      }
    ],
    "types": {
      "t_address": {
        "encoding": "inplace",
        "label": "address",
        "numberOfBytes": "20"
      },
      "t_address_payable": {
        "encoding": "inplace",
        "label": "address payable",
        "numberOfBytes": "20"
      },
      "t_bool": {
        "encoding": "inplace",
        "label": "bool",
        "numberOfBytes": "1"
      },
      "t_contract(IERC20)1144": {
        "encoding": "inplace",
        "label": "contract IERC20",
        "numberOfBytes": "20"
      },
      "t_mapping(t_address,t_uint256)": {
        "encoding": "mapping",
        "key": "t_address",
        "label": "mapping(address => uint256)",
        "numberOfBytes": "32",
        "value": "t_uint256"
      },
      "t_uint256": {
        "encoding": "inplace",
        "label": "uint256",
        "numberOfBytes": "32"
      }
    }
  }
}