{
  "address": "0xe7f1725E7734CE288F8367e1Bb143E90bb3F0512",
  "abi": [
    {
      "inputs": [
        {
          "internalType": "uint256",
          "name": "rate",
          "type": "uint256"
        },
        {
          "internalType": "address payable",
          "name": "wallet",
          "type": "address"
        },
        {
          "internalType": "contract IERC20",
          "name": "token",
          "type": "address"
        },
        {
          "internalType": "uint256",
          "name": "tokenDecimals",
          "type": "uint256"
        }
      ],
      "stateMutability": "nonpayable",
      "type": "constructor"
    },
    {
      "anonymous": false,
      "inputs": [
        {
          "indexed": true,
          "internalType": "address",
          "name": "previousOwner",
          "type": "address"
        },
        {
          "indexed": true,
          "internalType": "address",
          "name": "newOwner",
          "type": "address"
        }
      ],
      "name": "OwnershipTransferred",
      "type": "event"
    },
    {
      "anonymous": false,
      "inputs": [
        {
          "indexed": false,
          "internalType": "address",
          "name": "recipient",
          "type": "address"
        },
        {
          "indexed": false,
          "internalType": "uint256",
          "name": "amount",
          "type": "uint256"
        }
      ],
      "name": "Refund",
      "type": "event"
    },
    {
      "anonymous": false,
      "inputs": [
        {
          "indexed": false,
          "internalType": "address",
          "name": "purchaser",
          "type": "address"
        },
        {
          "indexed": false,
          "internalType": "address",
          "name": "beneficiary",
          "type": "address"
        },
        {
          "indexed": false,
          "internalType": "uint256",
          "name": "value",
          "type": "uint256"
        },
        {
          "indexed": false,
          "internalType": "uint256",
          "name": "amount",
          "type": "uint256"
        }
      ],
      "name": "TokensPurchased",
      "type": "event"
    },
    {
      "inputs": [
        {
          "internalType": "address",
          "name": "",
          "type": "address"
        }
      ],
      "name": "_contributions",
      "outputs": [
        {
          "internalType": "uint256",
          "name": "",
          "type": "uint256"
        }
      ],
      "stateMutability": "view",
      "type": "function"
    },
    {
      "inputs": [
        {
          "internalType": "uint256",
          "name": "weiAmount",
          "type": "uint256"
        }
      ],
      "name": "_getTokenAmount",
      "outputs": [
        {
          "internalType": "uint256",
          "name": "",
          "type": "uint256"
        }
      ],
      "stateMutability": "view",
      "type": "function"
    },
    {
      "inputs": [],
      "name": "_rate",
      "outputs": [
        {
          "internalType": "uint256",
          "name": "",
          "type": "uint256"
        }
      ],
      "stateMutability": "view",
      "type": "function"
    },
    {
      "inputs": [],
      "name": "_token",
      "outputs": [
        {
          "internalType": "contract IERC20",
          "name": "",
          "type": "address"
        }
      ],
      "stateMutability": "view",
      "type": "function"
    },
    {
      "inputs": [],
      "name": "_wallet",
      "outputs": [
        {
          "internalType": "address payable",
          "name": "",
          "type": "address"
        }
      ],
      "stateMutability": "view",
      "type": "function"
    },
    {
      "inputs": [],
      "name": "_weiRaised",
      "outputs": [
        {
          "internalType": "uint256",
          "name": "",
          "type": "uint256"
        }
      ],
      "stateMutability": "view",
      "type": "function"
    },
    {
      "inputs": [],
      "name": "availableTokensICO",
      "outputs": [
        {
          "internalType": "uint256",
          "name": "",
          "type": "uint256"
        }
      ],
      "stateMutability": "view",
      "type": "function"
    },
    {
      "inputs": [],
      "name": "buyTokens",
      "outputs": [],
      "stateMutability": "payable",
      "type": "function"
    },
    {
      "inputs": [
        {
          "internalType": "address",
          "name": "addr",
          "type": "address"
        }
      ],
      "name": "checkContribution",
      "outputs": [
        {
          "internalType": "uint256",
          "name": "",
          "type": "uint256"
        }
      ],
      "stateMutability": "view",
      "type": "function"
    },
    {
      "inputs": [],
      "name": "endICO",
      "outputs": [
        {
          "internalType": "uint256",
          "name": "",
          "type": "uint256"
        }
      ],
      "stateMutability": "view",
      "type": "function"
    },
    {
      "inputs": [],
      "name": "hardCap",
      "outputs": [
        {
          "internalType": "uint256",
          "name": "",
          "type": "uint256"
        }
      ],
      "stateMutability": "view",
      "type": "function"
    },
    {
      "inputs": [],
      "name": "maxPurchase",
      "outputs": [
        {
          "internalType": "uint256",
          "name": "",
          "type": "uint256"
        }
      ],
      "stateMutability": "view",
      "type": "function"
    },
    {
      "inputs": [],
      "name": "minPurchase",
      "outputs": [
        {
          "internalType": "uint256",
          "name": "",
          "type": "uint256"
        }
      ],
      "stateMutability": "view",
      "type": "function"
    },
    {
      "inputs": [],
      "name": "owner",
      "outputs": [
        {
          "internalType": "address",
          "name": "",
          "type": "address"
        }
      ],
      "stateMutability": "view",
      "type": "function"
    },
    {
      "inputs": [],
      "name": "refundMe",
      "outputs": [],
      "stateMutability": "nonpayable",
      "type": "function"
    },
    {
      "inputs": [],
      "name": "refundStartDate",
      "outputs": [
        {
          "internalType": "uint256",
          "name": "",
          "type": "uint256"
        }
      ],
      "stateMutability": "view",
      "type": "function"
    },
    {
      "inputs": [
        {
          "internalType": "uint256",
          "name": "amount",
          "type": "uint256"
        }
      ],
      "name": "setAvailableTokens",
      "outputs": [],
      "stateMutability": "nonpayable",
      "type": "function"
    },
    {
      "inputs": [
        {
          "internalType": "uint256",
          "name": "value",
          "type": "uint256"
        }
      ],
      "name": "setHardCap",
      "outputs": [],
      "stateMutability": "nonpayable",
      "type": "function"
    },
    {
      "inputs": [
        {
          "internalType": "uint256",
          "name": "value",
          "type": "uint256"
        }
      ],
      "name": "setMaxPurchase",
      "outputs": [],
      "stateMutability": "nonpayable",
      "type": "function"
    },
    {
      "inputs": [
        {
          "internalType": "uint256",
          "name": "value",
          "type": "uint256"
        }
      ],
      "name": "setMinPurchase",
      "outputs": [],
      "stateMutability": "nonpayable",
      "type": "function"
    },
    {
      "inputs": [
        {
          "internalType": "uint256",
          "name": "newRate",
          "type": "uint256"
        }
      ],
      "name": "setRate",
      "outputs": [],
      "stateMutability": "nonpayable",
      "type": "function"
    },
    {
      "inputs": [
        {
          "internalType": "uint256",
          "name": "value",
          "type": "uint256"
        }
      ],
      "name": "setSoftCap",
      "outputs": [],
      "stateMutability": "nonpayable",
      "type": "function"
    },
    {
      "inputs": [
        {
          "internalType": "address payable",
          "name": "newWallet",
          "type": "address"
        }
      ],
      "name": "setWalletReceiver",
      "outputs": [],
      "stateMutability": "nonpayable",
      "type": "function"
    },
    {
      "inputs": [],
      "name": "softCap",
      "outputs": [
        {
          "internalType": "uint256",
          "name": "",
          "type": "uint256"
        }
      ],
      "stateMutability": "view",
      "type": "function"
    },
    {
      "inputs": [
        {
          "internalType": "uint256",
          "name": "endDate",
          "type": "uint256"
        },
        {
          "internalType": "uint256",
          "name": "_minPurchase",
          "type": "uint256"
        },
        {
          "internalType": "uint256",
          "name": "_maxPurchase",
          "type": "uint256"
        },
        {
          "internalType": "uint256",
          "name": "_softCap",
          "type": "uint256"
        },
        {
          "internalType": "uint256",
          "name": "_hardCap",
          "type": "uint256"
        }
      ],
      "name": "startICO",
      "outputs": [],
      "stateMutability": "nonpayable",
      "type": "function"
    },
    {
      "inputs": [],
      "name": "startRefund",
      "outputs": [
        {
          "internalType": "bool",
          "name": "",
          "type": "bool"
        }
      ],
      "stateMutability": "view",
      "type": "function"
    },
    {
      "inputs": [],
      "name": "stopICO",
      "outputs": [],
      "stateMutability": "nonpayable",
      "type": "function"
    },
    {
      "inputs": [
        {
          "internalType": "contract IERC20",
          "name": "tokenAddress",
          "type": "address"
        }
      ],
      "name": "takeTokens",
      "outputs": [],
      "stateMutability": "nonpayable",
      "type": "function"
    },
    {
      "inputs": [
        {
          "internalType": "address",
          "name": "newOwner",
          "type": "address"
        }
      ],
      "name": "transferOwnership",
      "outputs": [],
      "stateMutability": "nonpayable",
      "type": "function"
    },
    {
      "inputs": [],
      "name": "weiRaised",
      "outputs": [
        {
          "internalType": "uint256",
          "name": "",
          "type": "uint256"
        }
      ],
      "stateMutability": "view",
      "type": "function"
    },
    {
      "inputs": [],
      "name": "withdraw",
      "outputs": [],
      "stateMutability": "nonpayable",
      "type": "function"
    },
    {
      "stateMutability": "payable",
      "type": "receive"
    }
  ],
  "transactionHash": "0xf794bd02c34d690f723376f6cf9edbc4d734e734dd578e173b04542f041c2fc3",
  "args": [
    5000,
    "0x3C44CdDdB6a900fa2b585dd299e03d12FA4293BC",
    "0x5FbDB2315678afecb367f032d93F642f64180aa3",
    18
  ],
  "numDeployments": 1,
  "solcInputHash": "eda44c9e873027d4d89e03df38abd236",
  "bytecode": "0x60806040526000600e60006101000a81548160ff0219169083151502179055503480156200002c57600080fd5b50604051620035e5380380620035e583398181016040528101906200005291906200031e565b600160008190555060006200006c620002d160201b60201c565b905080600160006101000a81548173ffffffffffffffffffffffffffffffffffffffff021916908373ffffffffffffffffffffffffffffffffffffffff1602179055508073ffffffffffffffffffffffffffffffffffffffff16600073ffffffffffffffffffffffffffffffffffffffff167f8be0079c531659141344cd1fd0a4f28419497f9722a3daafe3b4186f6b6457e060405160405180910390a3506000841162000151576040517f08c379a0000000000000000000000000000000000000000000000000000000008152600401620001489062000449565b60405180910390fd5b600073ffffffffffffffffffffffffffffffffffffffff168373ffffffffffffffffffffffffffffffffffffffff161415620001c4576040517f08c379a0000000000000000000000000000000000000000000000000000000008152600401620001bb9062000405565b60405180910390fd5b600073ffffffffffffffffffffffffffffffffffffffff168273ffffffffffffffffffffffffffffffffffffffff16141562000237576040517f08c379a00000000000000000000000000000000000000000000000000000000081526004016200022e9062000427565b60405180910390fd5b8360068190555082600560006101000a81548173ffffffffffffffffffffffffffffffffffffffff021916908373ffffffffffffffffffffffffffffffffffffffff16021790555081600360006101000a81548173ffffffffffffffffffffffffffffffffffffffff021916908373ffffffffffffffffffffffffffffffffffffffff1602179055508060048190555050505050620005fc565b600033905090565b600081519050620002ea81620005ae565b92915050565b6000815190506200030181620005c8565b92915050565b6000815190506200031881620005e2565b92915050565b600080600080608085870312156200033b576200033a620004e2565b5b60006200034b8782880162000307565b94505060206200035e87828801620002d9565b93505060406200037187828801620002f0565b9250506060620003848782880162000307565b91505092959194509250565b60006200039f6024836200046b565b9150620003ac82620004e7565b604082019050919050565b6000620003c66023836200046b565b9150620003d38262000536565b604082019050919050565b6000620003ed6013836200046b565b9150620003fa8262000585565b602082019050919050565b60006020820190508181036000830152620004208162000390565b9050919050565b600060208201905081810360008301526200044281620003b7565b9050919050565b600060208201905081810360008301526200046481620003de565b9050919050565b600082825260208201905092915050565b60006200048982620004b8565b9050919050565b60006200049d82620004b8565b9050919050565b6000620004b1826200047c565b9050919050565b600073ffffffffffffffffffffffffffffffffffffffff82169050919050565b6000819050919050565b600080fd5b7f5072652d53616c653a2077616c6c657420697320746865207a65726f2061646460008201527f7265737300000000000000000000000000000000000000000000000000000000602082015250565b7f5072652d53616c653a20746f6b656e20697320746865207a65726f206164647260008201527f6573730000000000000000000000000000000000000000000000000000000000602082015250565b7f5072652d53616c653a2072617465206973203000000000000000000000000000600082015250565b620005b98162000490565b8114620005c557600080fd5b50565b620005d381620004a4565b8114620005df57600080fd5b50565b620005ed81620004d8565b8114620005f957600080fd5b50565b612fd9806200060c6000396000f3fe6080604052600436106101dc5760003560e01c8063977b055b11610102578063d5cf5c7211610095578063ecd0c0c311610064578063ecd0c0c3146106a2578063f2fde38b146106cd578063f6d893ec146106f6578063fb86a4041461071f5761024b565b8063d5cf5c72146105fc578063e3cef7a114610625578063e8307d001461064e578063e9fdfd9f146106775761024b565b8063c8e569a8116100d1578063c8e569a814610589578063d0febe4c146105a0578063d18d944b146105aa578063d572d5f7146105d35761024b565b8063977b055b146104cb578063a41a028b146104f6578063ab0ced0e14610521578063adf4a1441461055e5761024b565b80635a9e426b1161017a57806383bebced1161014957806383bebced1461041f5780638da5cb5b1461044a578063906a26e01461047557806394a5aa8d146104a05761024b565b80635a9e426b14610377578063610757e41461038e57806371189742146103b95780637a99bb0a146103e25761024b565b806334fcf437116101b657806334fcf437146102e15780633ccfd60b1461030a5780634042b66f146103215780634f2484091461034c5761024b565b80631e6a610d14610250578063298b6a9f1461028d57806333b5b62e146102b65761024b565b3661024b5760006008541180156101f4575060085442105b156102065761020161074a565b610249565b60006008819055506040517f08c379a000000000000000000000000000000000000000000000000000000000815260040161024090612763565b60405180910390fd5b005b600080fd5b34801561025c57600080fd5b5061027760048036038101906102729190612072565b61094c565b60405161028491906127e3565b60405180910390f35b34801561029957600080fd5b506102b460048036038101906102af9190612180565b610964565b005b3480156102c257600080fd5b506102cb610c93565b6040516102d891906127e3565b60405180910390f35b3480156102ed57600080fd5b5061030860048036038101906103039190612126565b610c99565b005b34801561031657600080fd5b5061031f610d7e565b005b34801561032d57600080fd5b50610336610f41565b60405161034391906127e3565b60405180910390f35b34801561035857600080fd5b50610361610f4b565b60405161036e91906127e3565b60405180910390f35b34801561038357600080fd5b5061038c610f51565b005b34801561039a57600080fd5b506103a361110f565b6040516103b091906124d9565b60405180910390f35b3480156103c557600080fd5b506103e060048036038101906103db9190612126565b611135565b005b3480156103ee57600080fd5b5061040960048036038101906104049190612126565b6111d6565b60405161041691906127e3565b60405180910390f35b34801561042b57600080fd5b50610434611214565b60405161044191906127e3565b60405180910390f35b34801561045657600080fd5b5061045f61121a565b60405161046c91906124be565b60405180910390f35b34801561048157600080fd5b5061048a611244565b60405161049791906127e3565b60405180910390f35b3480156104ac57600080fd5b506104b561124a565b6040516104c291906127e3565b60405180910390f35b3480156104d757600080fd5b506104e0611250565b6040516104ed91906127e3565b60405180910390f35b34801561050257600080fd5b5061050b611256565b60405161051891906127e3565b60405180910390f35b34801561052d57600080fd5b5061054860048036038101906105439190612072565b61125c565b60405161055591906127e3565b60405180910390f35b34801561056a57600080fd5b506105736112a5565b604051610580919061258b565b60405180910390f35b34801561059557600080fd5b5061059e6112b8565b005b6105a861074a565b005b3480156105b657600080fd5b506105d160048036038101906105cc9190612126565b6113f4565b005b3480156105df57600080fd5b506105fa60048036038101906105f5919061209f565b611495565b005b34801561060857600080fd5b50610623600480360381019061061e9190612126565b611570565b005b34801561063157600080fd5b5061064c600480360381019061064791906120f9565b611611565b005b34801561065a57600080fd5b5061067560048036038101906106709190612126565b611876565b005b34801561068357600080fd5b5061068c611917565b60405161069991906127e3565b60405180910390f35b3480156106ae57600080fd5b506106b761191d565b6040516106c491906125a6565b60405180910390f35b3480156106d957600080fd5b506106f460048036038101906106ef9190612072565b611943565b005b34801561070257600080fd5b5061071d60048036038101906107189190612126565b611b0a565b005b34801561072b57600080fd5b50610734611bef565b60405161074191906127e3565b60405180910390f35b60026000541415610790576040517f08c379a0000000000000000000000000000000000000000000000000000000008152600401610787906127a3565b60405180910390fd5b600260008190555060006008541180156107ab575060085442105b80156107b957506000600d54115b6107f8576040517f08c379a00000000000000000000000000000000000000000000000000000000081526004016107ef906126c3565b60405180910390fd5b60003490506000610808826111d6565b905061081f82600754611bf590919063ffffffff16565b60078190555080600d546108339190612a6c565b600d819055506108928260026000610849611c53565b73ffffffffffffffffffffffffffffffffffffffff1673ffffffffffffffffffffffffffffffffffffffff16815260200190815260200160002054611bf590919063ffffffff16565b6002600061089e611c53565b73ffffffffffffffffffffffffffffffffffffffff1673ffffffffffffffffffffffffffffffffffffffff168152602001908152602001600020819055506108ec6108e7611c53565b611c5b565b7f6faf93231a456e552dbc9961f58d9713ee4f2e69d15f1975b050ef0911053a7b610915611c53565b33848460405161092894939291906124f4565b60405180910390a1610938611cf4565b610940611e38565b50506001600081905550565b60026020528060005260406000206000915090505481565b61096c611c53565b73ffffffffffffffffffffffffffffffffffffffff16600160009054906101000a900473ffffffffffffffffffffffffffffffffffffffff1673ffffffffffffffffffffffffffffffffffffffff16146109fb576040517f08c379a00000000000000000000000000000000000000000000000000000000081526004016109f290612723565b60405180910390fd5b4260085410610a3f576040517f08c379a0000000000000000000000000000000000000000000000000000000008152600401610a3690612783565b60405180910390fd5b6000600e60006101000a81548160ff0219169083151502179055506000600f81905550600360009054906101000a900473ffffffffffffffffffffffffffffffffffffffff1673ffffffffffffffffffffffffffffffffffffffff166370a08231306040518263ffffffff1660e01b8152600401610abd91906124be565b60206040518083038186803b158015610ad557600080fd5b505afa158015610ae9573d6000803e3d6000fd5b505050506040513d601f19601f82011682018060405250810190610b0d9190612153565b600d81905550428511610b55576040517f08c379a0000000000000000000000000000000000000000000000000000000008152600401610b4c90612643565b60405180910390fd5b808210610b97576040517f08c379a0000000000000000000000000000000000000000000000000000000008152600401610b8e906125e3565b60405180910390fd5b828410610bd9576040517f08c379a0000000000000000000000000000000000000000000000000000000008152600401610bd0906126a3565b60405180910390fd5b6000600d5411610c1e576040517f08c379a0000000000000000000000000000000000000000000000000000000008152600401610c1590612603565b60405180910390fd5b60008411610c61576040517f08c379a0000000000000000000000000000000000000000000000000000000008152600401610c58906126e3565b60405180910390fd5b846008819055508360098190555082600a8190555081600c8190555080600b8190555060006007819055505050505050565b60095481565b610ca1611c53565b73ffffffffffffffffffffffffffffffffffffffff16600160009054906101000a900473ffffffffffffffffffffffffffffffffffffffff1673ffffffffffffffffffffffffffffffffffffffff1614610d30576040517f08c379a0000000000000000000000000000000000000000000000000000000008152600401610d2790612723565b60405180910390fd5b4260085410610d74576040517f08c379a0000000000000000000000000000000000000000000000000000000008152600401610d6b90612783565b60405180910390fd5b8060068190555050565b610d86611c53565b73ffffffffffffffffffffffffffffffffffffffff16600160009054906101000a900473ffffffffffffffffffffffffffffffffffffffff1673ffffffffffffffffffffffffffffffffffffffff1614610e15576040517f08c379a0000000000000000000000000000000000000000000000000000000008152600401610e0c90612723565b60405180910390fd5b4260085410610e59576040517f08c379a0000000000000000000000000000000000000000000000000000000008152600401610e5090612783565b60405180910390fd5b60001515600e60009054906101000a900460ff1615151480610e8a5750426203f480600f54610e88919061281a565b105b610e9357600080fd5b60004711610ed6576040517f08c379a0000000000000000000000000000000000000000000000000000000008152600401610ecd906127c3565b60405180910390fd5b600560009054906101000a900473ffffffffffffffffffffffffffffffffffffffff1673ffffffffffffffffffffffffffffffffffffffff166108fc479081150290604051600060405180830381858888f19350505050158015610f3e573d6000803e3d6000fd5b50565b6000600754905090565b60085481565b4260085410610f95576040517f08c379a0000000000000000000000000000000000000000000000000000000008152600401610f8c90612783565b60405180910390fd5b60011515600e60009054906101000a900460ff16151514610feb576040517f08c379a0000000000000000000000000000000000000000000000000000000008152600401610fe290612683565b60405180910390fd5b6000600260003373ffffffffffffffffffffffffffffffffffffffff1673ffffffffffffffffffffffffffffffffffffffff16815260200190815260200160002054905080471061110c576000600260003373ffffffffffffffffffffffffffffffffffffffff1673ffffffffffffffffffffffffffffffffffffffff16815260200190815260200160002081905550600081111561110b5760003390508073ffffffffffffffffffffffffffffffffffffffff166108fc839081150290604051600060405180830381858888f193505050501580156110cf573d6000803e3d6000fd5b507fbb28353e4598c3b9199101a66e0989549b659a59a54d2c27fbb183f1932c8e6d3383604051611101929190612562565b60405180910390a1505b5b50565b600560009054906101000a900473ffffffffffffffffffffffffffffffffffffffff1681565b61113d611c53565b73ffffffffffffffffffffffffffffffffffffffff16600160009054906101000a900473ffffffffffffffffffffffffffffffffffffffff1673ffffffffffffffffffffffffffffffffffffffff16146111cc576040517f08c379a00000000000000000000000000000000000000000000000000000000081526004016111c390612723565b60405180910390fd5b80600a8190555050565b600061120d600454600a6111ea91906128f4565b6111ff60065485611ea390919063ffffffff16565b611f1e90919063ffffffff16565b9050919050565b60065481565b6000600160009054906101000a900473ffffffffffffffffffffffffffffffffffffffff16905090565b600c5481565b60075481565b600a5481565b600d5481565b6000600260008373ffffffffffffffffffffffffffffffffffffffff1673ffffffffffffffffffffffffffffffffffffffff168152602001908152602001600020549050919050565b600e60009054906101000a900460ff1681565b6112c0611c53565b73ffffffffffffffffffffffffffffffffffffffff16600160009054906101000a900473ffffffffffffffffffffffffffffffffffffffff1673ffffffffffffffffffffffffffffffffffffffff161461134f576040517f08c379a000000000000000000000000000000000000000000000000000000000815260040161134690612723565b60405180910390fd5b6000600854118015611362575060085442105b801561137057506000600d54115b6113af576040517f08c379a00000000000000000000000000000000000000000000000000000000081526004016113a6906126c3565b60405180910390fd5b6000600881905550600c54600754106113cf576113ca611e38565b6113f2565b6001600e60006101000a81548160ff02191690831515021790555042600f819055505b565b6113fc611c53565b73ffffffffffffffffffffffffffffffffffffffff16600160009054906101000a900473ffffffffffffffffffffffffffffffffffffffff1673ffffffffffffffffffffffffffffffffffffffff161461148b576040517f08c379a000000000000000000000000000000000000000000000000000000000815260040161148290612723565b60405180910390fd5b80600b8190555050565b61149d611c53565b73ffffffffffffffffffffffffffffffffffffffff16600160009054906101000a900473ffffffffffffffffffffffffffffffffffffffff1673ffffffffffffffffffffffffffffffffffffffff161461152c576040517f08c379a000000000000000000000000000000000000000000000000000000000815260040161152390612723565b60405180910390fd5b80600560006101000a81548173ffffffffffffffffffffffffffffffffffffffff021916908373ffffffffffffffffffffffffffffffffffffffff16021790555050565b611578611c53565b73ffffffffffffffffffffffffffffffffffffffff16600160009054906101000a900473ffffffffffffffffffffffffffffffffffffffff1673ffffffffffffffffffffffffffffffffffffffff1614611607576040517f08c379a00000000000000000000000000000000000000000000000000000000081526004016115fe90612723565b60405180910390fd5b80600c8190555050565b611619611c53565b73ffffffffffffffffffffffffffffffffffffffff16600160009054906101000a900473ffffffffffffffffffffffffffffffffffffffff1673ffffffffffffffffffffffffffffffffffffffff16146116a8576040517f08c379a000000000000000000000000000000000000000000000000000000000815260040161169f90612723565b60405180910390fd5b42600854106116ec576040517f08c379a00000000000000000000000000000000000000000000000000000000081526004016116e390612783565b60405180910390fd5b600081905060008173ffffffffffffffffffffffffffffffffffffffff166370a08231306040518263ffffffff1660e01b815260040161172c91906124be565b60206040518083038186803b15801561174457600080fd5b505afa158015611758573d6000803e3d6000fd5b505050506040513d601f19601f8201168201806040525081019061177c9190612153565b9050600081116117c1576040517f08c379a00000000000000000000000000000000000000000000000000000000081526004016117b890612743565b60405180910390fd5b8173ffffffffffffffffffffffffffffffffffffffff1663a9059cbb600560009054906101000a900473ffffffffffffffffffffffffffffffffffffffff16836040518363ffffffff1660e01b815260040161181e929190612539565b602060405180830381600087803b15801561183857600080fd5b505af115801561184c573d6000803e3d6000fd5b505050506040513d601f19601f8201168201806040525081019061187091906120cc565b50505050565b61187e611c53565b73ffffffffffffffffffffffffffffffffffffffff16600160009054906101000a900473ffffffffffffffffffffffffffffffffffffffff1673ffffffffffffffffffffffffffffffffffffffff161461190d576040517f08c379a000000000000000000000000000000000000000000000000000000000815260040161190490612723565b60405180910390fd5b8060098190555050565b600f5481565b600360009054906101000a900473ffffffffffffffffffffffffffffffffffffffff1681565b61194b611c53565b73ffffffffffffffffffffffffffffffffffffffff16600160009054906101000a900473ffffffffffffffffffffffffffffffffffffffff1673ffffffffffffffffffffffffffffffffffffffff16146119da576040517f08c379a00000000000000000000000000000000000000000000000000000000081526004016119d190612723565b60405180910390fd5b600073ffffffffffffffffffffffffffffffffffffffff168173ffffffffffffffffffffffffffffffffffffffff161415611a4a576040517f08c379a0000000000000000000000000000000000000000000000000000000008152600401611a4190612623565b60405180910390fd5b8073ffffffffffffffffffffffffffffffffffffffff16600160009054906101000a900473ffffffffffffffffffffffffffffffffffffffff1673ffffffffffffffffffffffffffffffffffffffff167f8be0079c531659141344cd1fd0a4f28419497f9722a3daafe3b4186f6b6457e060405160405180910390a380600160006101000a81548173ffffffffffffffffffffffffffffffffffffffff021916908373ffffffffffffffffffffffffffffffffffffffff16021790555050565b611b12611c53565b73ffffffffffffffffffffffffffffffffffffffff16600160009054906101000a900473ffffffffffffffffffffffffffffffffffffffff1673ffffffffffffffffffffffffffffffffffffffff1614611ba1576040517f08c379a0000000000000000000000000000000000000000000000000000000008152600401611b9890612723565b60405180910390fd5b4260085410611be5576040517f08c379a0000000000000000000000000000000000000000000000000000000008152600401611bdc90612783565b60405180910390fd5b80600d8190555050565b600b5481565b6000808284611c04919061281a565b905083811015611c49576040517f08c379a0000000000000000000000000000000000000000000000000000000008152600401611c4090612663565b60405180910390fd5b8091505092915050565b600033905090565b611cf181604051602401611c6f91906124be565b6040516020818303038152906040527f2c2ecbc2000000000000000000000000000000000000000000000000000000007bffffffffffffffffffffffffffffffffffffffffffffffffffffffff19166020820180517bffffffffffffffffffffffffffffffffffffffffffffffffffffffff8381831617835250505050611f68565b50565b6000611d3e600260003373ffffffffffffffffffffffffffffffffffffffff1673ffffffffffffffffffffffffffffffffffffffff168152602001908152602001600020546111d6565b90506000600260003373ffffffffffffffffffffffffffffffffffffffff1673ffffffffffffffffffffffffffffffffffffffff16815260200190815260200160002081905550600360009054906101000a900473ffffffffffffffffffffffffffffffffffffffff1673ffffffffffffffffffffffffffffffffffffffff1663a9059cbb33836040518363ffffffff1660e01b8152600401611de2929190612562565b602060405180830381600087803b158015611dfc57600080fd5b505af1158015611e10573d6000803e3d6000fd5b505050506040513d601f19601f82011682018060405250810190611e3491906120cc565b5050565b600560009054906101000a900473ffffffffffffffffffffffffffffffffffffffff1673ffffffffffffffffffffffffffffffffffffffff166108fc479081150290604051600060405180830381858888f19350505050158015611ea0573d6000803e3d6000fd5b50565b600080831415611eb65760009050611f18565b60008284611ec49190612a12565b9050828482611ed39190612870565b14611f13576040517f08c379a0000000000000000000000000000000000000000000000000000000008152600401611f0a90612703565b60405180910390fd5b809150505b92915050565b6000611f6083836040518060400160405280601a81526020017f536166654d6174683a206469766973696f6e206279207a65726f000000000000815250611f91565b905092915050565b60008151905060006a636f6e736f6c652e6c6f679050602083016000808483855afa5050505050565b60008083118290611fd8576040517f08c379a0000000000000000000000000000000000000000000000000000000008152600401611fcf91906125c1565b60405180910390fd5b5060008385611fe79190612870565b9050809150509392505050565b60008135905061200381612f30565b92915050565b60008135905061201881612f47565b92915050565b60008151905061202d81612f5e565b92915050565b60008135905061204281612f75565b92915050565b60008135905061205781612f8c565b92915050565b60008151905061206c81612f8c565b92915050565b60006020828403121561208857612087612be5565b5b600061209684828501611ff4565b91505092915050565b6000602082840312156120b5576120b4612be5565b5b60006120c384828501612009565b91505092915050565b6000602082840312156120e2576120e1612be5565b5b60006120f08482850161201e565b91505092915050565b60006020828403121561210f5761210e612be5565b5b600061211d84828501612033565b91505092915050565b60006020828403121561213c5761213b612be5565b5b600061214a84828501612048565b91505092915050565b60006020828403121561216957612168612be5565b5b60006121778482850161205d565b91505092915050565b600080600080600060a0868803121561219c5761219b612be5565b5b60006121aa88828901612048565b95505060206121bb88828901612048565b94505060406121cc88828901612048565b93505060606121dd88828901612048565b92505060806121ee88828901612048565b9150509295509295909350565b61220481612b0c565b82525050565b61221381612ab2565b82525050565b61222281612aa0565b82525050565b61223181612ac4565b82525050565b61224081612b1e565b82525050565b6000612251826127fe565b61225b8185612809565b935061226b818560208601612b54565b61227481612bea565b840191505092915050565b600061228c602283612809565b915061229782612c08565b604082019050919050565b60006122af601b83612809565b91506122ba82612c57565b602082019050919050565b60006122d2602683612809565b91506122dd82612c80565b604082019050919050565b60006122f5601683612809565b915061230082612ccf565b602082019050919050565b6000612318601b83612809565b915061232382612cf8565b602082019050919050565b600061233b601383612809565b915061234682612d21565b602082019050919050565b600061235e602a83612809565b915061236982612d4a565b604082019050919050565b6000612381601283612809565b915061238c82612d99565b602082019050919050565b60006123a4601783612809565b91506123af82612dc2565b602082019050919050565b60006123c7602183612809565b91506123d282612deb565b604082019050919050565b60006123ea602083612809565b91506123f582612e3a565b602082019050919050565b600061240d601383612809565b915061241882612e63565b602082019050919050565b6000612430601283612809565b915061243b82612e8c565b602082019050919050565b6000612453601883612809565b915061245e82612eb5565b602082019050919050565b6000612476601f83612809565b915061248182612ede565b602082019050919050565b6000612499601583612809565b91506124a482612f07565b602082019050919050565b6124b881612b02565b82525050565b60006020820190506124d36000830184612219565b92915050565b60006020820190506124ee600083018461220a565b92915050565b600060808201905061250960008301876121fb565b6125166020830186612219565b61252360408301856124af565b61253060608301846124af565b95945050505050565b600060408201905061254e60008301856121fb565b61255b60208301846124af565b9392505050565b60006040820190506125776000830185612219565b61258460208301846124af565b9392505050565b60006020820190506125a06000830184612228565b92915050565b60006020820190506125bb6000830184612237565b92915050565b600060208201905081810360008301526125db8184612246565b905092915050565b600060208201905081810360008301526125fc8161227f565b9050919050565b6000602082019050818103600083015261261c816122a2565b9050919050565b6000602082019050818103600083015261263c816122c5565b9050919050565b6000602082019050818103600083015261265c816122e8565b9050919050565b6000602082019050818103600083015261267c8161230b565b9050919050565b6000602082019050818103600083015261269c8161232e565b9050919050565b600060208201905081810360008301526126bc81612351565b9050919050565b600060208201905081810360008301526126dc81612374565b9050919050565b600060208201905081810360008301526126fc81612397565b9050919050565b6000602082019050818103600083015261271c816123ba565b9050919050565b6000602082019050818103600083015261273c816123dd565b9050919050565b6000602082019050818103600083015261275c81612400565b9050919050565b6000602082019050818103600083015261277c81612423565b9050919050565b6000602082019050818103600083015261279c81612446565b9050919050565b600060208201905081810360008301526127bc81612469565b9050919050565b600060208201905081810360008301526127dc8161248c565b9050919050565b60006020820190506127f860008301846124af565b92915050565b600081519050919050565b600082825260208201905092915050565b600061282582612b02565b915061283083612b02565b9250827fffffffffffffffffffffffffffffffffffffffffffffffffffffffffffffffff0382111561286557612864612b87565b5b828201905092915050565b600061287b82612b02565b915061288683612b02565b92508261289657612895612bb6565b5b828204905092915050565b6000808291508390505b60018511156128eb578086048111156128c7576128c6612b87565b5b60018516156128d65780820291505b80810290506128e485612bfb565b94506128ab565b94509492505050565b60006128ff82612b02565b915061290a83612b02565b92506129377fffffffffffffffffffffffffffffffffffffffffffffffffffffffffffffffff848461293f565b905092915050565b60008261294f5760019050612a0b565b8161295d5760009050612a0b565b8160018114612973576002811461297d576129ac565b6001915050612a0b565b60ff84111561298f5761298e612b87565b5b8360020a9150848211156129a6576129a5612b87565b5b50612a0b565b5060208310610133831016604e8410600b84101617156129e15782820a9050838111156129dc576129db612b87565b5b612a0b565b6129ee84848460016128a1565b92509050818404811115612a0557612a04612b87565b5b81810290505b9392505050565b6000612a1d82612b02565b9150612a2883612b02565b9250817fffffffffffffffffffffffffffffffffffffffffffffffffffffffffffffffff0483118215151615612a6157612a60612b87565b5b828202905092915050565b6000612a7782612b02565b9150612a8283612b02565b925082821015612a9557612a94612b87565b5b828203905092915050565b6000612aab82612ae2565b9050919050565b6000612abd82612ae2565b9050919050565b60008115159050919050565b6000612adb82612aa0565b9050919050565b600073ffffffffffffffffffffffffffffffffffffffff82169050919050565b6000819050919050565b6000612b1782612b30565b9050919050565b6000612b2982612b30565b9050919050565b6000612b3b82612b42565b9050919050565b6000612b4d82612ae2565b9050919050565b60005b83811015612b72578082015181840152602081019050612b57565b83811115612b81576000848401525b50505050565b7f4e487b7100000000000000000000000000000000000000000000000000000000600052601160045260246000fd5b7f4e487b7100000000000000000000000000000000000000000000000000000000600052601260045260246000fd5b600080fd5b6000601f19601f8301169050919050565b60008160011c9050919050565b7f536f6674636170206d757374206265206c6f776572207468616e20486172646360008201527f6170000000000000000000000000000000000000000000000000000000000000602082015250565b7f617661696c61626c65546f6b656e73206d757374206265203e20300000000000600082015250565b7f4f776e61626c653a206e6577206f776e657220697320746865207a65726f206160008201527f6464726573730000000000000000000000000000000000000000000000000000602082015250565b7f6475726174696f6e2073686f756c64206265203e203000000000000000000000600082015250565b7f536166654d6174683a206164646974696f6e206f766572666c6f770000000000600082015250565b7f6e6f20726566756e6420617661696c61626c6500000000000000000000000000600082015250565b7f6d696e5075726368617365206d757374206265206c6f776572207468616e206d60008201527f6178507572636861736500000000000000000000000000000000000000000000602082015250565b7f49434f206d757374206265206163746976650000000000000000000000000000600082015250565b7f5f6d696e50757263686173652073686f756c64203e2030000000000000000000600082015250565b7f536166654d6174683a206d756c7469706c69636174696f6e206f766572666c6f60008201527f7700000000000000000000000000000000000000000000000000000000000000602082015250565b7f4f776e61626c653a2063616c6c6572206973206e6f7420746865206f776e6572600082015250565b7f4245502d32302062616c616e6365206973203000000000000000000000000000600082015250565b7f5072652d53616c6520697320636c6f7365640000000000000000000000000000600082015250565b7f49434f2073686f756c64206e6f74206265206163746976650000000000000000600082015250565b7f5265656e7472616e637947756172643a207265656e7472616e742063616c6c00600082015250565b7f436f6e747261637420686173206e6f206d6f6e65790000000000000000000000600082015250565b612f3981612aa0565b8114612f4457600080fd5b50565b612f5081612ab2565b8114612f5b57600080fd5b50565b612f6781612ac4565b8114612f7257600080fd5b50565b612f7e81612ad0565b8114612f8957600080fd5b50565b612f9581612b02565b8114612fa057600080fd5b5056fea2646970667358221220ff28189324fc5efd13f31a9786c425fe3b32c8f1608d7a84d78c5ecd1218c25d64736f6c63430008070033",
  "devdoc": {
    "kind": "dev",
    "methods": {},
    "version": 1
  },
  "userdoc": {
    "kind": "user",
    "methods": {},
    "version": 1
  },
  "storageLayout": {
    "storage": [
      {
        "astId": 865,
        "contract": "contracts/Sale.sol:Sale",
        "label": "_status",
        "offset": 0,
        "slot": "0",
        "type": "t_uint256"
      },
      {
        "astId": 782,
        "contract": "contracts/Sale.sol:Sale",
        "label": "_owner",
        "offset": 0,
        "slot": "1",
        "type": "t_address"
      },
      {
        "astId": 16,
        "contract": "contracts/Sale.sol:Sale",
        "label": "_contributions",
        "offset": 0,
        "slot": "2",
        "type": "t_mapping(t_address,t_uint256)"
      },
      {
        "astId": 19,
        "contract": "contracts/Sale.sol:Sale",
        "label": "_token",
        "offset": 0,
        "slot": "3",
        "type": "t_contract(IERC20)1145"
      },
      {
        "astId": 21,
        "contract": "contracts/Sale.sol:Sale",
        "label": "_tokenDecimals",
        "offset": 0,
        "slot": "4",
        "type": "t_uint256"
      },
      {
        "astId": 23,
        "contract": "contracts/Sale.sol:Sale",
        "label": "_wallet",
        "offset": 0,
        "slot": "5",
        "type": "t_address_payable"
      },
      {
        "astId": 25,
        "contract": "contracts/Sale.sol:Sale",
        "label": "_rate",
        "offset": 0,
        "slot": "6",
        "type": "t_uint256"
      },
      {
        "astId": 27,
        "contract": "contracts/Sale.sol:Sale",
        "label": "_weiRaised",
        "offset": 0,
        "slot": "7",
        "type": "t_uint256"
      },
      {
        "astId": 29,
        "contract": "contracts/Sale.sol:Sale",
        "label": "endICO",
        "offset": 0,
        "slot": "8",
        "type": "t_uint256"
      },
      {
        "astId": 31,
        "contract": "contracts/Sale.sol:Sale",
        "label": "minPurchase",
        "offset": 0,
        "slot": "9",
        "type": "t_uint256"
      },
      {
        "astId": 33,
        "contract": "contracts/Sale.sol:Sale",
        "label": "maxPurchase",
        "offset": 0,
        "slot": "10",
        "type": "t_uint256"
      },
      {
        "astId": 35,
        "contract": "contracts/Sale.sol:Sale",
        "label": "hardCap",
        "offset": 0,
        "slot": "11",
        "type": "t_uint256"
      },
      {
        "astId": 37,
        "contract": "contracts/Sale.sol:Sale",
        "label": "softCap",
        "offset": 0,
        "slot": "12",
        "type": "t_uint256"
      },
      {
        "astId": 39,
        "contract": "contracts/Sale.sol:Sale",
        "label": "availableTokensICO",
        "offset": 0,
        "slot": "13",
        "type": "t_uint256"
      },
      {
        "astId": 42,
        "contract": "contracts/Sale.sol:Sale",
        "label": "startRefund",
        "offset": 0,
        "slot": "14",
        "type": "t_bool"
      },
      {
        "astId": 44,
        "contract": "contracts/Sale.sol:Sale",
        "label": "refundStartDate",
        "offset": 0,
        "slot": "15",
        "type": "t_uint256"
      }
    ],
    "types": {
      "t_address": {
        "encoding": "inplace",
        "label": "address",
        "numberOfBytes": "20"
      },
      "t_address_payable": {
        "encoding": "inplace",
        "label": "address payable",
        "numberOfBytes": "20"
      },
      "t_bool": {
        "encoding": "inplace",
        "label": "bool",
        "numberOfBytes": "1"
      },
      "t_contract(IERC20)1145": {
        "encoding": "inplace",
        "label": "contract IERC20",
        "numberOfBytes": "20"
      },
      "t_mapping(t_address,t_uint256)": {
        "encoding": "mapping",
        "key": "t_address",
        "label": "mapping(address => uint256)",
        "numberOfBytes": "32",
        "value": "t_uint256"
      },
      "t_uint256": {
        "encoding": "inplace",
        "label": "uint256",
        "numberOfBytes": "32"
      }
    }
  }
}