{
  "address": "0x8c1aa4eC166e1855a2d515eF265E11852fb88A14",
  "abi": [
    {
      "inputs": [
        {
          "internalType": "uint256",
          "name": "rate",
          "type": "uint256"
        },
        {
          "internalType": "address payable",
          "name": "wallet",
          "type": "address"
        },
        {
          "internalType": "contract IERC20",
          "name": "token",
          "type": "address"
        },
        {
          "internalType": "uint256",
          "name": "tokenDecimals",
          "type": "uint256"
        }
      ],
      "stateMutability": "nonpayable",
      "type": "constructor"
    },
    {
      "anonymous": false,
      "inputs": [
        {
          "indexed": true,
          "internalType": "address",
          "name": "previousOwner",
          "type": "address"
        },
        {
          "indexed": true,
          "internalType": "address",
          "name": "newOwner",
          "type": "address"
        }
      ],
      "name": "OwnershipTransferred",
      "type": "event"
    },
    {
      "anonymous": false,
      "inputs": [
        {
          "indexed": false,
          "internalType": "address",
          "name": "purchaser",
          "type": "address"
        },
        {
          "indexed": false,
          "internalType": "address",
          "name": "beneficiary",
          "type": "address"
        },
        {
          "indexed": false,
          "internalType": "uint256",
          "name": "value",
          "type": "uint256"
        },
        {
          "indexed": false,
          "internalType": "uint256",
          "name": "amount",
          "type": "uint256"
        }
      ],
      "name": "TokensPurchased",
      "type": "event"
    },
    {
      "inputs": [
        {
          "internalType": "address",
          "name": "",
          "type": "address"
        }
      ],
      "name": "_contributions",
      "outputs": [
        {
          "internalType": "uint256",
          "name": "",
          "type": "uint256"
        }
      ],
      "stateMutability": "view",
      "type": "function"
    },
    {
      "inputs": [
        {
          "internalType": "uint256",
          "name": "weiAmount",
          "type": "uint256"
        }
      ],
      "name": "_getTokenAmount",
      "outputs": [
        {
          "internalType": "uint256",
          "name": "",
          "type": "uint256"
        }
      ],
      "stateMutability": "view",
      "type": "function"
    },
    {
      "inputs": [],
      "name": "_rate",
      "outputs": [
        {
          "internalType": "uint256",
          "name": "",
          "type": "uint256"
        }
      ],
      "stateMutability": "view",
      "type": "function"
    },
    {
      "inputs": [],
      "name": "_token",
      "outputs": [
        {
          "internalType": "contract IERC20",
          "name": "",
          "type": "address"
        }
      ],
      "stateMutability": "view",
      "type": "function"
    },
    {
      "inputs": [],
      "name": "_wallet",
      "outputs": [
        {
          "internalType": "address payable",
          "name": "",
          "type": "address"
        }
      ],
      "stateMutability": "view",
      "type": "function"
    },
    {
      "inputs": [],
      "name": "_weiRaised",
      "outputs": [
        {
          "internalType": "uint256",
          "name": "",
          "type": "uint256"
        }
      ],
      "stateMutability": "view",
      "type": "function"
    },
    {
      "inputs": [],
      "name": "availableTokensICO",
      "outputs": [
        {
          "internalType": "uint256",
          "name": "",
          "type": "uint256"
        }
      ],
      "stateMutability": "view",
      "type": "function"
    },
    {
      "inputs": [],
      "name": "buyTokens",
      "outputs": [],
      "stateMutability": "payable",
      "type": "function"
    },
    {
      "inputs": [
        {
          "internalType": "address",
          "name": "addr",
          "type": "address"
        }
      ],
      "name": "checkContribution",
      "outputs": [
        {
          "internalType": "uint256",
          "name": "",
          "type": "uint256"
        }
      ],
      "stateMutability": "view",
      "type": "function"
    },
    {
      "inputs": [],
      "name": "endICO",
      "outputs": [
        {
          "internalType": "uint256",
          "name": "",
          "type": "uint256"
        }
      ],
      "stateMutability": "view",
      "type": "function"
    },
    {
      "inputs": [],
      "name": "hardCap",
      "outputs": [
        {
          "internalType": "uint256",
          "name": "",
          "type": "uint256"
        }
      ],
      "stateMutability": "view",
      "type": "function"
    },
    {
      "inputs": [],
      "name": "maxPurchase",
      "outputs": [
        {
          "internalType": "uint256",
          "name": "",
          "type": "uint256"
        }
      ],
      "stateMutability": "view",
      "type": "function"
    },
    {
      "inputs": [],
      "name": "minPurchase",
      "outputs": [
        {
          "internalType": "uint256",
          "name": "",
          "type": "uint256"
        }
      ],
      "stateMutability": "view",
      "type": "function"
    },
    {
      "inputs": [],
      "name": "owner",
      "outputs": [
        {
          "internalType": "address",
          "name": "",
          "type": "address"
        }
      ],
      "stateMutability": "view",
      "type": "function"
    },
    {
      "inputs": [
        {
          "internalType": "uint256",
          "name": "amount",
          "type": "uint256"
        }
      ],
      "name": "setAvailableTokens",
      "outputs": [],
      "stateMutability": "nonpayable",
      "type": "function"
    },
    {
      "inputs": [
        {
          "internalType": "uint256",
          "name": "value",
          "type": "uint256"
        }
      ],
      "name": "setHardCap",
      "outputs": [],
      "stateMutability": "nonpayable",
      "type": "function"
    },
    {
      "inputs": [
        {
          "internalType": "uint256",
          "name": "value",
          "type": "uint256"
        }
      ],
      "name": "setMaxPurchase",
      "outputs": [],
      "stateMutability": "nonpayable",
      "type": "function"
    },
    {
      "inputs": [
        {
          "internalType": "uint256",
          "name": "value",
          "type": "uint256"
        }
      ],
      "name": "setMinPurchase",
      "outputs": [],
      "stateMutability": "nonpayable",
      "type": "function"
    },
    {
      "inputs": [
        {
          "internalType": "uint256",
          "name": "newRate",
          "type": "uint256"
        }
      ],
      "name": "setRate",
      "outputs": [],
      "stateMutability": "nonpayable",
      "type": "function"
    },
    {
      "inputs": [
        {
          "internalType": "uint256",
          "name": "value",
          "type": "uint256"
        }
      ],
      "name": "setSoftCap",
      "outputs": [],
      "stateMutability": "nonpayable",
      "type": "function"
    },
    {
      "inputs": [
        {
          "internalType": "address payable",
          "name": "newWallet",
          "type": "address"
        }
      ],
      "name": "setWalletReceiver",
      "outputs": [],
      "stateMutability": "nonpayable",
      "type": "function"
    },
    {
      "inputs": [],
      "name": "softCap",
      "outputs": [
        {
          "internalType": "uint256",
          "name": "",
          "type": "uint256"
        }
      ],
      "stateMutability": "view",
      "type": "function"
    },
    {
      "inputs": [
        {
          "internalType": "uint256",
          "name": "endDate",
          "type": "uint256"
        },
        {
          "internalType": "uint256",
          "name": "_minPurchase",
          "type": "uint256"
        },
        {
          "internalType": "uint256",
          "name": "_maxPurchase",
          "type": "uint256"
        },
        {
          "internalType": "uint256",
          "name": "_softCap",
          "type": "uint256"
        },
        {
          "internalType": "uint256",
          "name": "_hardCap",
          "type": "uint256"
        }
      ],
      "name": "startICO",
      "outputs": [],
      "stateMutability": "nonpayable",
      "type": "function"
    },
    {
      "inputs": [],
      "name": "stopICO",
      "outputs": [],
      "stateMutability": "nonpayable",
      "type": "function"
    },
    {
      "inputs": [
        {
          "internalType": "contract IERC20",
          "name": "tokenAddress",
          "type": "address"
        }
      ],
      "name": "takeTokens",
      "outputs": [],
      "stateMutability": "nonpayable",
      "type": "function"
    },
    {
      "inputs": [
        {
          "internalType": "address",
          "name": "newOwner",
          "type": "address"
        }
      ],
      "name": "transferOwnership",
      "outputs": [],
      "stateMutability": "nonpayable",
      "type": "function"
    },
    {
      "inputs": [],
      "name": "weiRaised",
      "outputs": [
        {
          "internalType": "uint256",
          "name": "",
          "type": "uint256"
        }
      ],
      "stateMutability": "view",
      "type": "function"
    },
    {
      "inputs": [],
      "name": "withdraw",
      "outputs": [],
      "stateMutability": "nonpayable",
      "type": "function"
    },
    {
      "stateMutability": "payable",
      "type": "receive"
    }
  ],
  "transactionHash": "0xda71eaca9bab79e89a2fd56b04bdf4acea01d8392982649845af98b87122f3e8",
  "args": [
    "1500000000000000000000",
    "0x15C0fE80Ac0109CcF9bE71E1FE39256987Cb9E18",
    "0x92a9b0180615AE83d7D61b842bd715356B3259Eb",
    18
  ],
  "numDeployments": 1,
  "solcInputHash": "fab7f0a811822ccf90ca1200321eb281",
  "bytecode": "0x60806040523480156200001157600080fd5b50604051620035e9380380620035e9833981810160405281019062000037919062000303565b6001600081905550600062000051620002b660201b60201c565b905080600160006101000a81548173ffffffffffffffffffffffffffffffffffffffff021916908373ffffffffffffffffffffffffffffffffffffffff1602179055508073ffffffffffffffffffffffffffffffffffffffff16600073ffffffffffffffffffffffffffffffffffffffff167f8be0079c531659141344cd1fd0a4f28419497f9722a3daafe3b4186f6b6457e060405160405180910390a3506000841162000136576040517f08c379a00000000000000000000000000000000000000000000000000000000081526004016200012d906200042e565b60405180910390fd5b600073ffffffffffffffffffffffffffffffffffffffff168373ffffffffffffffffffffffffffffffffffffffff161415620001a9576040517f08c379a0000000000000000000000000000000000000000000000000000000008152600401620001a090620003ea565b60405180910390fd5b600073ffffffffffffffffffffffffffffffffffffffff168273ffffffffffffffffffffffffffffffffffffffff1614156200021c576040517f08c379a000000000000000000000000000000000000000000000000000000000815260040162000213906200040c565b60405180910390fd5b8360068190555082600560006101000a81548173ffffffffffffffffffffffffffffffffffffffff021916908373ffffffffffffffffffffffffffffffffffffffff16021790555081600360006101000a81548173ffffffffffffffffffffffffffffffffffffffff021916908373ffffffffffffffffffffffffffffffffffffffff1602179055508060048190555050505050620005e1565b600033905090565b600081519050620002cf8162000593565b92915050565b600081519050620002e681620005ad565b92915050565b600081519050620002fd81620005c7565b92915050565b6000806000806080858703121562000320576200031f620004c7565b5b60006200033087828801620002ec565b94505060206200034387828801620002be565b93505060406200035687828801620002d5565b92505060606200036987828801620002ec565b91505092959194509250565b60006200038460248362000450565b91506200039182620004cc565b604082019050919050565b6000620003ab60238362000450565b9150620003b8826200051b565b604082019050919050565b6000620003d260138362000450565b9150620003df826200056a565b602082019050919050565b60006020820190508181036000830152620004058162000375565b9050919050565b6000602082019050818103600083015262000427816200039c565b9050919050565b600060208201905081810360008301526200044981620003c3565b9050919050565b600082825260208201905092915050565b60006200046e826200049d565b9050919050565b600062000482826200049d565b9050919050565b6000620004968262000461565b9050919050565b600073ffffffffffffffffffffffffffffffffffffffff82169050919050565b6000819050919050565b600080fd5b7f5072652d53616c653a2077616c6c657420697320746865207a65726f2061646460008201527f7265737300000000000000000000000000000000000000000000000000000000602082015250565b7f5072652d53616c653a20746f6b656e20697320746865207a65726f206164647260008201527f6573730000000000000000000000000000000000000000000000000000000000602082015250565b7f5072652d53616c653a2072617465206973203000000000000000000000000000600082015250565b6200059e8162000475565b8114620005aa57600080fd5b50565b620005b88162000489565b8114620005c457600080fd5b50565b620005d281620004bd565b8114620005de57600080fd5b50565b612ff880620005f16000396000f3fe6080604052600436106101bb5760003560e01c8063977b055b116100ec578063d5cf5c721161008a578063ecd0c0c311610064578063ecd0c0c314610614578063f2fde38b1461063f578063f6d893ec14610668578063fb86a404146106915761022a565b8063d5cf5c7214610599578063e3cef7a1146105c2578063e8307d00146105eb5761022a565b8063c8e569a8116100c6578063c8e569a814610526578063d0febe4c1461053d578063d18d944b14610547578063d572d5f7146105705761022a565b8063977b055b14610493578063a41a028b146104be578063ab0ced0e146104e95761022a565b8063610757e41161015957806383bebced1161013357806383bebced146103e75780638da5cb5b14610412578063906a26e01461043d57806394a5aa8d146104685761022a565b8063610757e41461035657806371189742146103815780637a99bb0a146103aa5761022a565b806334fcf4371161019557806334fcf437146102c05780633ccfd60b146102e95780634042b66f146103005780634f2484091461032b5761022a565b80631e6a610d1461022f578063298b6a9f1461026c57806333b5b62e146102955761022a565b3661022a5760006008541180156101d3575060085442105b156101e5576101e06106bc565b610228565b60006008819055506040517f08c379a000000000000000000000000000000000000000000000000000000000815260040161021f9061260c565b60405180910390fd5b005b600080fd5b34801561023b57600080fd5b5061025660048036038101906102519190611e99565b610a9c565b60405161026391906126ec565b60405180910390f35b34801561027857600080fd5b50610293600480360381019061028e9190611fa7565b610ab4565b005b3480156102a157600080fd5b506102aa610dc0565b6040516102b791906126ec565b60405180910390f35b3480156102cc57600080fd5b506102e760048036038101906102e29190611f4d565b610dc6565b005b3480156102f557600080fd5b506102fe610eab565b005b34801561030c57600080fd5b50610315611034565b60405161032291906126ec565b60405180910390f35b34801561033757600080fd5b5061034061103e565b60405161034d91906126ec565b60405180910390f35b34801561036257600080fd5b5061036b611044565b604051610378919061237d565b60405180910390f35b34801561038d57600080fd5b506103a860048036038101906103a39190611f4d565b61106a565b005b3480156103b657600080fd5b506103d160048036038101906103cc9190611f4d565b61110b565b6040516103de91906126ec565b60405180910390f35b3480156103f357600080fd5b506103fc611149565b60405161040991906126ec565b60405180910390f35b34801561041e57600080fd5b5061042761114f565b6040516104349190612362565b60405180910390f35b34801561044957600080fd5b50610452611179565b60405161045f91906126ec565b60405180910390f35b34801561047457600080fd5b5061047d61117f565b60405161048a91906126ec565b60405180910390f35b34801561049f57600080fd5b506104a8611185565b6040516104b591906126ec565b60405180910390f35b3480156104ca57600080fd5b506104d361118b565b6040516104e091906126ec565b60405180910390f35b3480156104f557600080fd5b50610510600480360381019061050b9190611e99565b611191565b60405161051d91906126ec565b60405180910390f35b34801561053257600080fd5b5061053b6111da565b005b6105456106bc565b005b34801561055357600080fd5b5061056e60048036038101906105699190611f4d565b6112e3565b005b34801561057c57600080fd5b5061059760048036038101906105929190611ec6565b611384565b005b3480156105a557600080fd5b506105c060048036038101906105bb9190611f4d565b61145f565b005b3480156105ce57600080fd5b506105e960048036038101906105e49190611f20565b611500565b005b3480156105f757600080fd5b50610612600480360381019061060d9190611f4d565b611765565b005b34801561062057600080fd5b50610629611806565b604051610636919061242f565b60405180910390f35b34801561064b57600080fd5b5061066660048036038101906106619190611e99565b61182c565b005b34801561067457600080fd5b5061068f600480360381019061068a9190611f4d565b6119f3565b005b34801561069d57600080fd5b506106a6611ad8565b6040516106b391906126ec565b60405180910390f35b60026000541415610702576040517f08c379a00000000000000000000000000000000000000000000000000000000081526004016106f99061268c565b60405180910390fd5b6002600081905550600060085411801561071d575060085442105b801561072b57506000600d54115b61076a576040517f08c379a00000000000000000000000000000000000000000000000000000000081526004016107619061254c565b60405180910390fd5b60003490506000610779611ade565b9050600073ffffffffffffffffffffffffffffffffffffffff168173ffffffffffffffffffffffffffffffffffffffff1614156107eb576040517f08c379a00000000000000000000000000000000000000000000000000000000081526004016107e29061262c565b60405180910390fd5b600082141561082f576040517f08c379a0000000000000000000000000000000000000000000000000000000008152600401610826906126ac565b60405180910390fd5b600954821015610874576040517f08c379a000000000000000000000000000000000000000000000000000000000815260040161086b9061264c565b60405180910390fd5b600a546108c983600260008573ffffffffffffffffffffffffffffffffffffffff1673ffffffffffffffffffffffffffffffffffffffff16815260200190815260200160002054611ae690919063ffffffff16565b111561090a576040517f08c379a0000000000000000000000000000000000000000000000000000000008152600401610901906125cc565b60405180910390fd5b600b548260075461091b9190612723565b111561095c576040517f08c379a00000000000000000000000000000000000000000000000000000000081526004016109539061250c565b60405180910390fd5b60006109678361110b565b905061097e83600754611ae690919063ffffffff16565b60078190555080600d546109929190612975565b600d819055506109f183600260006109a8611ade565b73ffffffffffffffffffffffffffffffffffffffff1673ffffffffffffffffffffffffffffffffffffffff16815260200190815260200160002054611ae690919063ffffffff16565b600260006109fd611ade565b73ffffffffffffffffffffffffffffffffffffffff1673ffffffffffffffffffffffffffffffffffffffff168152602001908152602001600020819055507f6faf93231a456e552dbc9961f58d9713ee4f2e69d15f1975b050ef0911053a7b610a64611ade565b338584604051610a779493929190612398565b60405180910390a1610a87611b44565b610a8f611c88565b5050506001600081905550565b60026020528060005260406000206000915090505481565b610abc611ade565b73ffffffffffffffffffffffffffffffffffffffff16600160009054906101000a900473ffffffffffffffffffffffffffffffffffffffff1673ffffffffffffffffffffffffffffffffffffffff1614610b4b576040517f08c379a0000000000000000000000000000000000000000000000000000000008152600401610b42906125ac565b60405180910390fd5b4260085410610b8f576040517f08c379a0000000000000000000000000000000000000000000000000000000008152600401610b869061266c565b60405180910390fd5b600360009054906101000a900473ffffffffffffffffffffffffffffffffffffffff1673ffffffffffffffffffffffffffffffffffffffff166370a08231306040518263ffffffff1660e01b8152600401610bea9190612362565b60206040518083038186803b158015610c0257600080fd5b505afa158015610c16573d6000803e3d6000fd5b505050506040513d601f19601f82011682018060405250810190610c3a9190611f7a565b600d81905550428511610c82576040517f08c379a0000000000000000000000000000000000000000000000000000000008152600401610c79906124cc565b60405180910390fd5b808210610cc4576040517f08c379a0000000000000000000000000000000000000000000000000000000008152600401610cbb9061246c565b60405180910390fd5b828410610d06576040517f08c379a0000000000000000000000000000000000000000000000000000000008152600401610cfd9061252c565b60405180910390fd5b6000600d5411610d4b576040517f08c379a0000000000000000000000000000000000000000000000000000000008152600401610d429061248c565b60405180910390fd5b60008411610d8e576040517f08c379a0000000000000000000000000000000000000000000000000000000008152600401610d859061256c565b60405180910390fd5b846008819055508360098190555082600a8190555081600c8190555080600b8190555060006007819055505050505050565b60095481565b610dce611ade565b73ffffffffffffffffffffffffffffffffffffffff16600160009054906101000a900473ffffffffffffffffffffffffffffffffffffffff1673ffffffffffffffffffffffffffffffffffffffff1614610e5d576040517f08c379a0000000000000000000000000000000000000000000000000000000008152600401610e54906125ac565b60405180910390fd5b4260085410610ea1576040517f08c379a0000000000000000000000000000000000000000000000000000000008152600401610e989061266c565b60405180910390fd5b8060068190555050565b610eb3611ade565b73ffffffffffffffffffffffffffffffffffffffff16600160009054906101000a900473ffffffffffffffffffffffffffffffffffffffff1673ffffffffffffffffffffffffffffffffffffffff1614610f42576040517f08c379a0000000000000000000000000000000000000000000000000000000008152600401610f39906125ac565b60405180910390fd5b4260085410610f86576040517f08c379a0000000000000000000000000000000000000000000000000000000008152600401610f7d9061266c565b60405180910390fd5b60004711610fc9576040517f08c379a0000000000000000000000000000000000000000000000000000000008152600401610fc0906126cc565b60405180910390fd5b600560009054906101000a900473ffffffffffffffffffffffffffffffffffffffff1673ffffffffffffffffffffffffffffffffffffffff166108fc479081150290604051600060405180830381858888f19350505050158015611031573d6000803e3d6000fd5b50565b6000600754905090565b60085481565b600560009054906101000a900473ffffffffffffffffffffffffffffffffffffffff1681565b611072611ade565b73ffffffffffffffffffffffffffffffffffffffff16600160009054906101000a900473ffffffffffffffffffffffffffffffffffffffff1673ffffffffffffffffffffffffffffffffffffffff1614611101576040517f08c379a00000000000000000000000000000000000000000000000000000000081526004016110f8906125ac565b60405180910390fd5b80600a8190555050565b6000611142600454600a61111f91906127fd565b61113460065485611cf390919063ffffffff16565b611d6e90919063ffffffff16565b9050919050565b60065481565b6000600160009054906101000a900473ffffffffffffffffffffffffffffffffffffffff16905090565b600c5481565b60075481565b600a5481565b600d5481565b6000600260008373ffffffffffffffffffffffffffffffffffffffff1673ffffffffffffffffffffffffffffffffffffffff168152602001908152602001600020549050919050565b6111e2611ade565b73ffffffffffffffffffffffffffffffffffffffff16600160009054906101000a900473ffffffffffffffffffffffffffffffffffffffff1673ffffffffffffffffffffffffffffffffffffffff1614611271576040517f08c379a0000000000000000000000000000000000000000000000000000000008152600401611268906125ac565b60405180910390fd5b6000600854118015611284575060085442105b801561129257506000600d54115b6112d1576040517f08c379a00000000000000000000000000000000000000000000000000000000081526004016112c89061254c565b60405180910390fd5b60006008819055506112e1611c88565b565b6112eb611ade565b73ffffffffffffffffffffffffffffffffffffffff16600160009054906101000a900473ffffffffffffffffffffffffffffffffffffffff1673ffffffffffffffffffffffffffffffffffffffff161461137a576040517f08c379a0000000000000000000000000000000000000000000000000000000008152600401611371906125ac565b60405180910390fd5b80600b8190555050565b61138c611ade565b73ffffffffffffffffffffffffffffffffffffffff16600160009054906101000a900473ffffffffffffffffffffffffffffffffffffffff1673ffffffffffffffffffffffffffffffffffffffff161461141b576040517f08c379a0000000000000000000000000000000000000000000000000000000008152600401611412906125ac565b60405180910390fd5b80600560006101000a81548173ffffffffffffffffffffffffffffffffffffffff021916908373ffffffffffffffffffffffffffffffffffffffff16021790555050565b611467611ade565b73ffffffffffffffffffffffffffffffffffffffff16600160009054906101000a900473ffffffffffffffffffffffffffffffffffffffff1673ffffffffffffffffffffffffffffffffffffffff16146114f6576040517f08c379a00000000000000000000000000000000000000000000000000000000081526004016114ed906125ac565b60405180910390fd5b80600c8190555050565b611508611ade565b73ffffffffffffffffffffffffffffffffffffffff16600160009054906101000a900473ffffffffffffffffffffffffffffffffffffffff1673ffffffffffffffffffffffffffffffffffffffff1614611597576040517f08c379a000000000000000000000000000000000000000000000000000000000815260040161158e906125ac565b60405180910390fd5b42600854106115db576040517f08c379a00000000000000000000000000000000000000000000000000000000081526004016115d29061266c565b60405180910390fd5b600081905060008173ffffffffffffffffffffffffffffffffffffffff166370a08231306040518263ffffffff1660e01b815260040161161b9190612362565b60206040518083038186803b15801561163357600080fd5b505afa158015611647573d6000803e3d6000fd5b505050506040513d601f19601f8201168201806040525081019061166b9190611f7a565b9050600081116116b0576040517f08c379a00000000000000000000000000000000000000000000000000000000081526004016116a7906125ec565b60405180910390fd5b8173ffffffffffffffffffffffffffffffffffffffff1663a9059cbb600560009054906101000a900473ffffffffffffffffffffffffffffffffffffffff16836040518363ffffffff1660e01b815260040161170d9291906123dd565b602060405180830381600087803b15801561172757600080fd5b505af115801561173b573d6000803e3d6000fd5b505050506040513d601f19601f8201168201806040525081019061175f9190611ef3565b50505050565b61176d611ade565b73ffffffffffffffffffffffffffffffffffffffff16600160009054906101000a900473ffffffffffffffffffffffffffffffffffffffff1673ffffffffffffffffffffffffffffffffffffffff16146117fc576040517f08c379a00000000000000000000000000000000000000000000000000000000081526004016117f3906125ac565b60405180910390fd5b8060098190555050565b600360009054906101000a900473ffffffffffffffffffffffffffffffffffffffff1681565b611834611ade565b73ffffffffffffffffffffffffffffffffffffffff16600160009054906101000a900473ffffffffffffffffffffffffffffffffffffffff1673ffffffffffffffffffffffffffffffffffffffff16146118c3576040517f08c379a00000000000000000000000000000000000000000000000000000000081526004016118ba906125ac565b60405180910390fd5b600073ffffffffffffffffffffffffffffffffffffffff168173ffffffffffffffffffffffffffffffffffffffff161415611933576040517f08c379a000000000000000000000000000000000000000000000000000000000815260040161192a906124ac565b60405180910390fd5b8073ffffffffffffffffffffffffffffffffffffffff16600160009054906101000a900473ffffffffffffffffffffffffffffffffffffffff1673ffffffffffffffffffffffffffffffffffffffff167f8be0079c531659141344cd1fd0a4f28419497f9722a3daafe3b4186f6b6457e060405160405180910390a380600160006101000a81548173ffffffffffffffffffffffffffffffffffffffff021916908373ffffffffffffffffffffffffffffffffffffffff16021790555050565b6119fb611ade565b73ffffffffffffffffffffffffffffffffffffffff16600160009054906101000a900473ffffffffffffffffffffffffffffffffffffffff1673ffffffffffffffffffffffffffffffffffffffff1614611a8a576040517f08c379a0000000000000000000000000000000000000000000000000000000008152600401611a81906125ac565b60405180910390fd5b4260085410611ace576040517f08c379a0000000000000000000000000000000000000000000000000000000008152600401611ac59061266c565b60405180910390fd5b80600d8190555050565b600b5481565b600033905090565b6000808284611af59190612723565b905083811015611b3a576040517f08c379a0000000000000000000000000000000000000000000000000000000008152600401611b31906124ec565b60405180910390fd5b8091505092915050565b6000611b8e600260003373ffffffffffffffffffffffffffffffffffffffff1673ffffffffffffffffffffffffffffffffffffffff1681526020019081526020016000205461110b565b90506000600260003373ffffffffffffffffffffffffffffffffffffffff1673ffffffffffffffffffffffffffffffffffffffff16815260200190815260200160002081905550600360009054906101000a900473ffffffffffffffffffffffffffffffffffffffff1673ffffffffffffffffffffffffffffffffffffffff1663a9059cbb33836040518363ffffffff1660e01b8152600401611c32929190612406565b602060405180830381600087803b158015611c4c57600080fd5b505af1158015611c60573d6000803e3d6000fd5b505050506040513d601f19601f82011682018060405250810190611c849190611ef3565b5050565b600560009054906101000a900473ffffffffffffffffffffffffffffffffffffffff1673ffffffffffffffffffffffffffffffffffffffff166108fc479081150290604051600060405180830381858888f19350505050158015611cf0573d6000803e3d6000fd5b50565b600080831415611d065760009050611d68565b60008284611d14919061291b565b9050828482611d239190612779565b14611d63576040517f08c379a0000000000000000000000000000000000000000000000000000000008152600401611d5a9061258c565b60405180910390fd5b809150505b92915050565b6000611db083836040518060400160405280601a81526020017f536166654d6174683a206469766973696f6e206279207a65726f000000000000815250611db8565b905092915050565b60008083118290611dff576040517f08c379a0000000000000000000000000000000000000000000000000000000008152600401611df6919061244a565b60405180910390fd5b5060008385611e0e9190612779565b9050809150509392505050565b600081359050611e2a81612f4f565b92915050565b600081359050611e3f81612f66565b92915050565b600081519050611e5481612f7d565b92915050565b600081359050611e6981612f94565b92915050565b600081359050611e7e81612fab565b92915050565b600081519050611e9381612fab565b92915050565b600060208284031215611eaf57611eae612aee565b5b6000611ebd84828501611e1b565b91505092915050565b600060208284031215611edc57611edb612aee565b5b6000611eea84828501611e30565b91505092915050565b600060208284031215611f0957611f08612aee565b5b6000611f1784828501611e45565b91505092915050565b600060208284031215611f3657611f35612aee565b5b6000611f4484828501611e5a565b91505092915050565b600060208284031215611f6357611f62612aee565b5b6000611f7184828501611e6f565b91505092915050565b600060208284031215611f9057611f8f612aee565b5b6000611f9e84828501611e84565b91505092915050565b600080600080600060a08688031215611fc357611fc2612aee565b5b6000611fd188828901611e6f565b9550506020611fe288828901611e6f565b9450506040611ff388828901611e6f565b935050606061200488828901611e6f565b925050608061201588828901611e6f565b9150509295509295909350565b61202b81612a15565b82525050565b61203a816129bb565b82525050565b612049816129a9565b82525050565b61205881612a27565b82525050565b600061206982612707565b6120738185612712565b9350612083818560208601612a5d565b61208c81612af3565b840191505092915050565b60006120a4602283612712565b91506120af82612b11565b604082019050919050565b60006120c7601b83612712565b91506120d282612b60565b602082019050919050565b60006120ea602683612712565b91506120f582612b89565b604082019050919050565b600061210d601683612712565b915061211882612bd8565b602082019050919050565b6000612130601b83612712565b915061213b82612c01565b602082019050919050565b6000612153601083612712565b915061215e82612c2a565b602082019050919050565b6000612176602a83612712565b915061218182612c53565b604082019050919050565b6000612199601283612712565b91506121a482612ca2565b602082019050919050565b60006121bc601783612712565b91506121c782612ccb565b602082019050919050565b60006121df602183612712565b91506121ea82612cf4565b604082019050919050565b6000612202602083612712565b915061220d82612d43565b602082019050919050565b6000612225602583612712565b915061223082612d6c565b604082019050919050565b6000612248601383612712565b915061225382612dbb565b602082019050919050565b600061226b601283612712565b915061227682612de4565b602082019050919050565b600061228e602a83612712565b915061229982612e0d565b604082019050919050565b60006122b1602683612712565b91506122bc82612e5c565b604082019050919050565b60006122d4601883612712565b91506122df82612eab565b602082019050919050565b60006122f7601f83612712565b915061230282612ed4565b602082019050919050565b600061231a601983612712565b915061232582612efd565b602082019050919050565b600061233d601583612712565b915061234882612f26565b602082019050919050565b61235c81612a0b565b82525050565b60006020820190506123776000830184612040565b92915050565b60006020820190506123926000830184612031565b92915050565b60006080820190506123ad6000830187612022565b6123ba6020830186612040565b6123c76040830185612353565b6123d46060830184612353565b95945050505050565b60006040820190506123f26000830185612022565b6123ff6020830184612353565b9392505050565b600060408201905061241b6000830185612040565b6124286020830184612353565b9392505050565b6000602082019050612444600083018461204f565b92915050565b60006020820190508181036000830152612464818461205e565b905092915050565b6000602082019050818103600083015261248581612097565b9050919050565b600060208201905081810360008301526124a5816120ba565b9050919050565b600060208201905081810360008301526124c5816120dd565b9050919050565b600060208201905081810360008301526124e581612100565b9050919050565b6000602082019050818103600083015261250581612123565b9050919050565b6000602082019050818103600083015261252581612146565b9050919050565b6000602082019050818103600083015261254581612169565b9050919050565b600060208201905081810360008301526125658161218c565b9050919050565b60006020820190508181036000830152612585816121af565b9050919050565b600060208201905081810360008301526125a5816121d2565b9050919050565b600060208201905081810360008301526125c5816121f5565b9050919050565b600060208201905081810360008301526125e581612218565b9050919050565b600060208201905081810360008301526126058161223b565b9050919050565b600060208201905081810360008301526126258161225e565b9050919050565b6000602082019050818103600083015261264581612281565b9050919050565b60006020820190508181036000830152612665816122a4565b9050919050565b60006020820190508181036000830152612685816122c7565b9050919050565b600060208201905081810360008301526126a5816122ea565b9050919050565b600060208201905081810360008301526126c58161230d565b9050919050565b600060208201905081810360008301526126e581612330565b9050919050565b60006020820190506127016000830184612353565b92915050565b600081519050919050565b600082825260208201905092915050565b600061272e82612a0b565b915061273983612a0b565b9250827fffffffffffffffffffffffffffffffffffffffffffffffffffffffffffffffff0382111561276e5761276d612a90565b5b828201905092915050565b600061278482612a0b565b915061278f83612a0b565b92508261279f5761279e612abf565b5b828204905092915050565b6000808291508390505b60018511156127f4578086048111156127d0576127cf612a90565b5b60018516156127df5780820291505b80810290506127ed85612b04565b94506127b4565b94509492505050565b600061280882612a0b565b915061281383612a0b565b92506128407fffffffffffffffffffffffffffffffffffffffffffffffffffffffffffffffff8484612848565b905092915050565b6000826128585760019050612914565b816128665760009050612914565b816001811461287c5760028114612886576128b5565b6001915050612914565b60ff84111561289857612897612a90565b5b8360020a9150848211156128af576128ae612a90565b5b50612914565b5060208310610133831016604e8410600b84101617156128ea5782820a9050838111156128e5576128e4612a90565b5b612914565b6128f784848460016127aa565b9250905081840481111561290e5761290d612a90565b5b81810290505b9392505050565b600061292682612a0b565b915061293183612a0b565b9250817fffffffffffffffffffffffffffffffffffffffffffffffffffffffffffffffff048311821515161561296a57612969612a90565b5b828202905092915050565b600061298082612a0b565b915061298b83612a0b565b92508282101561299e5761299d612a90565b5b828203905092915050565b60006129b4826129eb565b9050919050565b60006129c6826129eb565b9050919050565b60008115159050919050565b60006129e4826129a9565b9050919050565b600073ffffffffffffffffffffffffffffffffffffffff82169050919050565b6000819050919050565b6000612a2082612a39565b9050919050565b6000612a3282612a39565b9050919050565b6000612a4482612a4b565b9050919050565b6000612a56826129eb565b9050919050565b60005b83811015612a7b578082015181840152602081019050612a60565b83811115612a8a576000848401525b50505050565b7f4e487b7100000000000000000000000000000000000000000000000000000000600052601160045260246000fd5b7f4e487b7100000000000000000000000000000000000000000000000000000000600052601260045260246000fd5b600080fd5b6000601f19601f8301169050919050565b60008160011c9050919050565b7f536f6674636170206d757374206265206c6f776572207468616e20486172646360008201527f6170000000000000000000000000000000000000000000000000000000000000602082015250565b7f617661696c61626c65546f6b656e73206d757374206265203e20300000000000600082015250565b7f4f776e61626c653a206e6577206f776e657220697320746865207a65726f206160008201527f6464726573730000000000000000000000000000000000000000000000000000602082015250565b7f6475726174696f6e2073686f756c64206265203e203000000000000000000000600082015250565b7f536166654d6174683a206164646974696f6e206f766572666c6f770000000000600082015250565b7f4861726420436170207265616368656400000000000000000000000000000000600082015250565b7f6d696e5075726368617365206d757374206265206c6f776572207468616e206d60008201527f6178507572636861736500000000000000000000000000000000000000000000602082015250565b7f49434f206d757374206265206163746976650000000000000000000000000000600082015250565b7f5f6d696e50757263686173652073686f756c64203e2030000000000000000000600082015250565b7f536166654d6174683a206d756c7469706c69636174696f6e206f766572666c6f60008201527f7700000000000000000000000000000000000000000000000000000000000000602082015250565b7f4f776e61626c653a2063616c6c6572206973206e6f7420746865206f776e6572600082015250565b7f43616e277420627579206d6f7265207468616e3a204d6178696d756d2050757260008201527f6368617365000000000000000000000000000000000000000000000000000000602082015250565b7f4245502d32302062616c616e6365206973203000000000000000000000000000600082015250565b7f5072652d53616c6520697320636c6f7365640000000000000000000000000000600082015250565b7f43726f776473616c653a2062656e656669636961727920697320746865207a6560008201527f726f206164647265737300000000000000000000000000000000000000000000602082015250565b7f6861766520746f2073656e64206174206c65617374204d696e696d756d20507560008201527f7263686173650000000000000000000000000000000000000000000000000000602082015250565b7f49434f2073686f756c64206e6f74206265206163746976650000000000000000600082015250565b7f5265656e7472616e637947756172643a207265656e7472616e742063616c6c00600082015250565b7f43726f776473616c653a20776569416d6f756e74206973203000000000000000600082015250565b7f436f6e747261637420686173206e6f206d6f6e65790000000000000000000000600082015250565b612f58816129a9565b8114612f6357600080fd5b50565b612f6f816129bb565b8114612f7a57600080fd5b50565b612f86816129cd565b8114612f9157600080fd5b50565b612f9d816129d9565b8114612fa857600080fd5b50565b612fb481612a0b565b8114612fbf57600080fd5b5056fea2646970667358221220ddb1d4aa84821fc5858603a669a2a1328c4169eb302f9d9e24f660b8db3609c364736f6c63430008070033",
  "devdoc": {
    "kind": "dev",
    "methods": {},
    "version": 1
  },
  "userdoc": {
    "kind": "user",
    "methods": {},
    "version": 1
  },
  "storageLayout": {
    "storage": [
      {
        "astId": 744,
        "contract": "contracts/Sale.sol:Sale",
        "label": "_status",
        "offset": 0,
        "slot": "0",
        "type": "t_uint256"
      },
      {
        "astId": 661,
        "contract": "contracts/Sale.sol:Sale",
        "label": "_owner",
        "offset": 0,
        "slot": "1",
        "type": "t_address"
      },
      {
        "astId": 16,
        "contract": "contracts/Sale.sol:Sale",
        "label": "_contributions",
        "offset": 0,
        "slot": "2",
        "type": "t_mapping(t_address,t_uint256)"
      },
      {
        "astId": 19,
        "contract": "contracts/Sale.sol:Sale",
        "label": "_token",
        "offset": 0,
        "slot": "3",
        "type": "t_contract(IERC20)1024"
      },
      {
        "astId": 21,
        "contract": "contracts/Sale.sol:Sale",
        "label": "_tokenDecimals",
        "offset": 0,
        "slot": "4",
        "type": "t_uint256"
      },
      {
        "astId": 23,
        "contract": "contracts/Sale.sol:Sale",
        "label": "_wallet",
        "offset": 0,
        "slot": "5",
        "type": "t_address_payable"
      },
      {
        "astId": 25,
        "contract": "contracts/Sale.sol:Sale",
        "label": "_rate",
        "offset": 0,
        "slot": "6",
        "type": "t_uint256"
      },
      {
        "astId": 27,
        "contract": "contracts/Sale.sol:Sale",
        "label": "_weiRaised",
        "offset": 0,
        "slot": "7",
        "type": "t_uint256"
      },
      {
        "astId": 29,
        "contract": "contracts/Sale.sol:Sale",
        "label": "endICO",
        "offset": 0,
        "slot": "8",
        "type": "t_uint256"
      },
      {
        "astId": 31,
        "contract": "contracts/Sale.sol:Sale",
        "label": "minPurchase",
        "offset": 0,
        "slot": "9",
        "type": "t_uint256"
      },
      {
        "astId": 33,
        "contract": "contracts/Sale.sol:Sale",
        "label": "maxPurchase",
        "offset": 0,
        "slot": "10",
        "type": "t_uint256"
      },
      {
        "astId": 35,
        "contract": "contracts/Sale.sol:Sale",
        "label": "hardCap",
        "offset": 0,
        "slot": "11",
        "type": "t_uint256"
      },
      {
        "astId": 37,
        "contract": "contracts/Sale.sol:Sale",
        "label": "softCap",
        "offset": 0,
        "slot": "12",
        "type": "t_uint256"
      },
      {
        "astId": 39,
        "contract": "contracts/Sale.sol:Sale",
        "label": "availableTokensICO",
        "offset": 0,
        "slot": "13",
        "type": "t_uint256"
      }
    ],
    "types": {
      "t_address": {
        "encoding": "inplace",
        "label": "address",
        "numberOfBytes": "20"
      },
      "t_address_payable": {
        "encoding": "inplace",
        "label": "address payable",
        "numberOfBytes": "20"
      },
      "t_contract(IERC20)1024": {
        "encoding": "inplace",
        "label": "contract IERC20",
        "numberOfBytes": "20"
      },
      "t_mapping(t_address,t_uint256)": {
        "encoding": "mapping",
        "key": "t_address",
        "label": "mapping(address => uint256)",
        "numberOfBytes": "32",
        "value": "t_uint256"
      },
      "t_uint256": {
        "encoding": "inplace",
        "label": "uint256",
        "numberOfBytes": "32"
      }
    }
  }
}